{
  "contractName": "EthereumClaimsRegistry",
  "abi": [
    {
      "inputs": [],
      "stateMutability": "nonpayable",
      "type": "constructor"
    },
    {
      "anonymous": false,
      "inputs": [
        {
          "indexed": false,
          "internalType": "address",
          "name": "claimHolder",
          "type": "address"
        }
      ],
      "name": "ClaimHolderAdded",
      "type": "event"
    },
    {
      "inputs": [
        {
          "internalType": "address",
          "name": "",
          "type": "address"
        }
      ],
      "name": "claimHolder",
      "outputs": [
        {
          "internalType": "contract xClaimHolder",
          "name": "",
          "type": "address"
        }
      ],
      "stateMutability": "view",
      "type": "function",
      "constant": true
    },
    {
      "inputs": [],
      "name": "owner",
      "outputs": [
        {
          "internalType": "address",
          "name": "",
          "type": "address"
        }
      ],
      "stateMutability": "view",
      "type": "function",
      "constant": true
    },
    {
      "inputs": [],
      "name": "addClaimHolder",
      "outputs": [
        {
          "internalType": "address",
          "name": "contractAddr",
          "type": "address"
        }
      ],
      "stateMutability": "nonpayable",
      "type": "function"
    },
    {
      "inputs": [
        {
          "internalType": "address",
          "name": "holder",
          "type": "address"
        },
        {
          "internalType": "uint256",
          "name": "_claimType",
          "type": "uint256"
        },
        {
          "internalType": "uint256",
          "name": "_scheme",
          "type": "uint256"
        },
        {
          "internalType": "address",
          "name": "_issuer",
          "type": "address"
        },
        {
          "internalType": "bytes",
          "name": "_signature",
          "type": "bytes"
        },
        {
          "internalType": "bytes",
          "name": "_data",
          "type": "bytes"
        },
        {
          "internalType": "string",
          "name": "_uri",
          "type": "string"
        }
      ],
      "name": "addClaim",
      "outputs": [
        {
          "internalType": "bytes32",
          "name": "claimID",
          "type": "bytes32"
        }
      ],
      "stateMutability": "nonpayable",
      "type": "function"
    },
    {
      "inputs": [
        {
          "internalType": "address",
          "name": "holder",
          "type": "address"
        },
        {
          "internalType": "bytes32",
          "name": "_claimId",
          "type": "bytes32"
        }
      ],
      "name": "removeClaim",
      "outputs": [],
      "stateMutability": "nonpayable",
      "type": "function"
    },
    {
      "inputs": [
        {
          "internalType": "address",
          "name": "holder",
          "type": "address"
        },
        {
          "internalType": "bytes32",
          "name": "_claimId",
          "type": "bytes32"
        }
      ],
      "name": "getClaim",
      "outputs": [
        {
          "internalType": "uint256",
          "name": "claimType",
          "type": "uint256"
        },
        {
          "internalType": "uint256",
          "name": "scheme",
          "type": "uint256"
        },
        {
          "internalType": "address",
          "name": "issuer",
          "type": "address"
        },
        {
          "internalType": "bytes",
          "name": "signature",
          "type": "bytes"
        },
        {
          "internalType": "bytes",
          "name": "data",
          "type": "bytes"
        },
        {
          "internalType": "string",
          "name": "uri",
          "type": "string"
        }
      ],
      "stateMutability": "view",
      "type": "function",
      "constant": true
    },
    {
      "inputs": [
        {
          "internalType": "address",
          "name": "holder",
          "type": "address"
        },
        {
          "internalType": "uint256",
          "name": "_claimType",
          "type": "uint256"
        }
      ],
      "name": "getClaimIdsByType",
      "outputs": [
        {
          "internalType": "bytes32[]",
          "name": "claimIds",
          "type": "bytes32[]"
        }
      ],
      "stateMutability": "view",
      "type": "function",
      "constant": true
    },
    {
      "inputs": [
        {
          "internalType": "address",
          "name": "addr",
          "type": "address"
        }
      ],
      "name": "getClaimHolder",
      "outputs": [
        {
          "internalType": "contract xClaimHolder",
          "name": "",
          "type": "address"
        }
      ],
      "stateMutability": "view",
      "type": "function",
      "constant": true
    },
    {
      "inputs": [
        {
          "internalType": "address",
          "name": "holder",
          "type": "address"
        }
      ],
      "name": "destroy",
      "outputs": [],
      "stateMutability": "nonpayable",
      "type": "function"
    }
  ],
  "bytecode": "0x608060405234801561001057600080fd5b50336000806101000a81548173ffffffffffffffffffffffffffffffffffffffff021916908373ffffffffffffffffffffffffffffffffffffffff160217905550613e95806100606000396000f3fe60806040523480156200001157600080fd5b50600436106200009f5760003560e01c80638da5cb5b116200006f5780638da5cb5b146200016b578063a1c8ca7e146200018d578063dbfe87e114620001ad578063ed71842a14620001cf578063fdde0e661462000205576200009f565b8062f55d9d14620000a45780630e2f957514620000c4578063423401b314620000fa5780634361443f1462000130575b600080fd5b620000c26004803603810190620000bc919062000d05565b6200023b565b005b620000e26004803603810190620000dc919062000d05565b6200039c565b604051620000f1919062001237565b60405180910390f35b62000118600480360381019062000112919062000d05565b62000405565b60405162000127919062001237565b60405180910390f35b6200014e600480360381019062000148919062000d31565b62000438565b604051620001629695949392919062001293565b60405180910390f35b620001756200054b565b604051620001849190620011bc565b60405180910390f35b620001ab6004803603810190620001a5919062000d31565b6200056f565b005b620001b762000664565b604051620001c69190620011bc565b60405180910390f35b620001ed6004803603810190620001e7919062000db3565b620007e6565b604051620001fc91906200121a565b60405180910390f35b6200022360048036038101906200021d919062000d72565b620008ef565b604051620002329190620011f6565b60405180910390f35b60008054906101000a900473ffffffffffffffffffffffffffffffffffffffff1673ffffffffffffffffffffffffffffffffffffffff163373ffffffffffffffffffffffffffffffffffffffff1614620002cc576040517f08c379a0000000000000000000000000000000000000000000000000000000008152600401620002c39062001254565b60405180910390fd5b600160008273ffffffffffffffffffffffffffffffffffffffff1673ffffffffffffffffffffffffffffffffffffffff16815260200190815260200160002060009054906101000a900473ffffffffffffffffffffffffffffffffffffffff1673ffffffffffffffffffffffffffffffffffffffff1662f55d9d826040518263ffffffff1660e01b8152600401620003659190620011d9565b600060405180830381600087803b1580156200038057600080fd5b505af115801562000395573d6000803e3d6000fd5b5050505050565b6000600160008373ffffffffffffffffffffffffffffffffffffffff1673ffffffffffffffffffffffffffffffffffffffff16815260200190815260200160002060009054906101000a900473ffffffffffffffffffffffffffffffffffffffff169050919050565b60016020528060005260406000206000915054906101000a900473ffffffffffffffffffffffffffffffffffffffff1681565b60008060006060806060600160008973ffffffffffffffffffffffffffffffffffffffff1673ffffffffffffffffffffffffffffffffffffffff16815260200190815260200160002060009054906101000a900473ffffffffffffffffffffffffffffffffffffffff1673ffffffffffffffffffffffffffffffffffffffff1663c9100bcb886040518263ffffffff1660e01b8152600401620004dc91906200121a565b60006040518083038186803b158015620004f557600080fd5b505afa1580156200050a573d6000803e3d6000fd5b505050506040513d6000823e3d601f19601f8201168201806040525081019062000535919062000f48565b9550955095509550955095509295509295509295565b60008054906101000a900473ffffffffffffffffffffffffffffffffffffffff1681565b600160008373ffffffffffffffffffffffffffffffffffffffff1673ffffffffffffffffffffffffffffffffffffffff16815260200190815260200160002060009054906101000a900473ffffffffffffffffffffffffffffffffffffffff1673ffffffffffffffffffffffffffffffffffffffff16634eee424a826040518263ffffffff1660e01b81526004016200060991906200121a565b602060405180830381600087803b1580156200062457600080fd5b505af115801562000639573d6000803e3d6000fd5b505050506040513d601f19601f820116820180604052508101906200065f919062000ef0565b505050565b60008060009054906101000a900473ffffffffffffffffffffffffffffffffffffffff1673ffffffffffffffffffffffffffffffffffffffff163373ffffffffffffffffffffffffffffffffffffffff1614620006f8576040517f08c379a0000000000000000000000000000000000000000000000000000000008152600401620006ef9062001254565b60405180910390fd5b60006040516200070890620009ec565b604051809103906000f08015801562000725573d6000803e3d6000fd5b50905080915080600160008473ffffffffffffffffffffffffffffffffffffffff1673ffffffffffffffffffffffffffffffffffffffff16815260200190815260200160002060006101000a81548173ffffffffffffffffffffffffffffffffffffffff021916908373ffffffffffffffffffffffffffffffffffffffff1602179055507fafb6f8637d656c4460e35a55ee8a5366eea247a9f2730f3c002540c353be087081604051620007da9190620011bc565b60405180910390a15090565b6000600160008973ffffffffffffffffffffffffffffffffffffffff1673ffffffffffffffffffffffffffffffffffffffff16815260200190815260200160002060009054906101000a900473ffffffffffffffffffffffffffffffffffffffff1673ffffffffffffffffffffffffffffffffffffffff1663b1a34e0d8888888888886040518763ffffffff1660e01b81526004016200088c9695949392919062001293565b602060405180830381600087803b158015620008a757600080fd5b505af1158015620008bc573d6000803e3d6000fd5b505050506040513d601f19601f82011682018060405250810190620008e2919062000f1c565b9050979650505050505050565b6060600160008473ffffffffffffffffffffffffffffffffffffffff1673ffffffffffffffffffffffffffffffffffffffff16815260200190815260200160002060009054906101000a900473ffffffffffffffffffffffffffffffffffffffff1673ffffffffffffffffffffffffffffffffffffffff1663262b54f5836040518263ffffffff1660e01b81526004016200098b919062001276565b60006040518083038186803b158015620009a457600080fd5b505afa158015620009b9573d6000803e3d6000fd5b505050506040513d6000823e3d601f19601f82011682018060405250810190620009e4919062000eab565b905092915050565b612839806200162783390190565b600062000a1162000a0b846200133e565b62001315565b9050808382526020820190508285602086028201111562000a3157600080fd5b60005b8581101562000a65578162000a4a888262000c0c565b84526020840193506020830192505060018101905062000a34565b5050509392505050565b600062000a8662000a80846200136d565b62001315565b90508281526020810184848401111562000a9f57600080fd5b62000aac848285620014da565b509392505050565b600062000acb62000ac5846200136d565b62001315565b90508281526020810184848401111562000ae457600080fd5b62000af1848285620014e9565b509392505050565b600062000b1062000b0a84620013a3565b62001315565b90508281526020810184848401111562000b2957600080fd5b62000b36848285620014da565b509392505050565b600062000b5562000b4f84620013a3565b62001315565b90508281526020810184848401111562000b6e57600080fd5b62000b7b848285620014e9565b509392505050565b60008135905062000b9481620015be565b92915050565b60008151905062000bab81620015be565b92915050565b600082601f83011262000bc357600080fd5b815162000bd5848260208601620009fa565b91505092915050565b60008151905062000bef81620015d8565b92915050565b60008135905062000c0681620015f2565b92915050565b60008151905062000c1d81620015f2565b92915050565b600082601f83011262000c3557600080fd5b813562000c4784826020860162000a6f565b91505092915050565b600082601f83011262000c6257600080fd5b815162000c7484826020860162000ab4565b91505092915050565b600082601f83011262000c8f57600080fd5b813562000ca184826020860162000af9565b91505092915050565b600082601f83011262000cbc57600080fd5b815162000cce84826020860162000b3e565b91505092915050565b60008135905062000ce8816200160c565b92915050565b60008151905062000cff816200160c565b92915050565b60006020828403121562000d1857600080fd5b600062000d288482850162000b83565b91505092915050565b6000806040838503121562000d4557600080fd5b600062000d558582860162000b83565b925050602062000d688582860162000bf5565b9150509250929050565b6000806040838503121562000d8657600080fd5b600062000d968582860162000b83565b925050602062000da98582860162000cd7565b9150509250929050565b600080600080600080600060e0888a03121562000dcf57600080fd5b600062000ddf8a828b0162000b83565b975050602062000df28a828b0162000cd7565b965050604062000e058a828b0162000cd7565b955050606062000e188a828b0162000b83565b945050608088013567ffffffffffffffff81111562000e3657600080fd5b62000e448a828b0162000c23565b93505060a088013567ffffffffffffffff81111562000e6257600080fd5b62000e708a828b0162000c23565b92505060c088013567ffffffffffffffff81111562000e8e57600080fd5b62000e9c8a828b0162000c7d565b91505092959891949750929550565b60006020828403121562000ebe57600080fd5b600082015167ffffffffffffffff81111562000ed957600080fd5b62000ee78482850162000bb1565b91505092915050565b60006020828403121562000f0357600080fd5b600062000f138482850162000bde565b91505092915050565b60006020828403121562000f2f57600080fd5b600062000f3f8482850162000c0c565b91505092915050565b60008060008060008060c0878903121562000f6257600080fd5b600062000f7289828a0162000cee565b965050602062000f8589828a0162000cee565b955050604062000f9889828a0162000b9a565b945050606087015167ffffffffffffffff81111562000fb657600080fd5b62000fc489828a0162000c50565b935050608087015167ffffffffffffffff81111562000fe257600080fd5b62000ff089828a0162000c50565b92505060a087015167ffffffffffffffff8111156200100e57600080fd5b6200101c89828a0162000caa565b9150509295509295509295565b6000620010378383620010cf565b60208301905092915050565b6200104e816200145e565b82525050565b6200105f816200144a565b82525050565b60006200107282620013e9565b6200107e818562001417565b93506200108b83620013d9565b8060005b83811015620010c2578151620010a6888262001029565b9750620010b3836200140a565b9250506001810190506200108f565b5085935050505092915050565b620010da816200147e565b82525050565b620010eb816200147e565b82525050565b6000620010fe82620013f4565b6200110a818562001428565b93506200111c818560208601620014e9565b620011278162001584565b840191505092915050565b6200113d81620014b2565b82525050565b60006200115082620013ff565b6200115c818562001439565b93506200116e818560208601620014e9565b620011798162001584565b840191505092915050565b60006200119360158362001439565b9150620011a08262001595565b602082019050919050565b620011b681620014a8565b82525050565b6000602082019050620011d3600083018462001054565b92915050565b6000602082019050620011f0600083018462001043565b92915050565b6000602082019050818103600083015262001212818462001065565b905092915050565b6000602082019050620012316000830184620010e0565b92915050565b60006020820190506200124e600083018462001132565b92915050565b600060208201905081810360008301526200126f8162001184565b9050919050565b60006020820190506200128d6000830184620011ab565b92915050565b600060c082019050620012aa6000830189620011ab565b620012b96020830188620011ab565b620012c8604083018762001054565b8181036060830152620012dc8186620010f1565b90508181036080830152620012f28185620010f1565b905081810360a083015262001308818462001143565b9050979650505050505050565b60006200132162001334565b90506200132f82826200151f565b919050565b6000604051905090565b600067ffffffffffffffff8211156200135c576200135b62001555565b5b602082029050602081019050919050565b600067ffffffffffffffff8211156200138b576200138a62001555565b5b620013968262001584565b9050602081019050919050565b600067ffffffffffffffff821115620013c157620013c062001555565b5b620013cc8262001584565b9050602081019050919050565b6000819050602082019050919050565b600081519050919050565b600081519050919050565b600081519050919050565b6000602082019050919050565b600082825260208201905092915050565b600082825260208201905092915050565b600082825260208201905092915050565b6000620014578262001488565b9050919050565b60006200146b8262001488565b9050919050565b60008115159050919050565b6000819050919050565b600073ffffffffffffffffffffffffffffffffffffffff82169050919050565b6000819050919050565b6000620014bf82620014c6565b9050919050565b6000620014d38262001488565b9050919050565b82818337600083830152505050565b60005b8381101562001509578082015181840152602081019050620014ec565b8381111562001519576000848401525b50505050565b6200152a8262001584565b810181811067ffffffffffffffff821117156200154c576200154b62001555565b5b80604052505050565b7f4e487b7100000000000000000000000000000000000000000000000000000000600052604160045260246000fd5b6000601f19601f8301169050919050565b7f596f7520617265206e6f7420746865206f776e65720000000000000000000000600082015250565b620015c9816200144a565b8114620015d557600080fd5b50565b620015e38162001472565b8114620015ef57600080fd5b50565b620015fd816200147e565b81146200160957600080fd5b50565b6200161781620014a8565b81146200162357600080fd5b5056fe60806040523480156200001157600080fd5b5060003360405160200162000027919062000132565b6040516020818303038152906040528051906020012090508060016000838152602001908152602001600020600201819055506001806000838152602001908152602001600020600001819055506001806000838152602001908152602001600020600101819055506002600060018152602001908152602001600020819080600181540180825580915050600190039060005260206000200160009091909190915055600180600083815260200190815260200160002060000154827f480000bb1edad8ca1470381cc334b1917fbd51c6531f3a623ea8e0ec7e38a6e960405160405180910390a450620001b8565b6200012c62000126826200014f565b62000183565b82525050565b600062000140828462000117565b60148201915081905092915050565b60006200015c8262000163565b9050919050565b600073ffffffffffffffffffffffffffffffffffffffff82169050919050565b6000620001908262000197565b9050919050565b6000620001a482620001ab565b9050919050565b60008160601b9050919050565b61267180620001c86000396000f3fe608060405234801561001057600080fd5b50600436106100ce5760003560e01c8063747442d31161008c578063b1a34e0d11610066578063b1a34e0d14610271578063b61d27f6146102a1578063c9100bcb146102d1578063d202158d14610306576100ce565b8063747442d3146101e1578063862642f5146102115780639010f72614610241576100ce565b8062f55d9d146100d3578063032c1a8a146100ef57806312aaac701461011f5780631d38124014610151578063262b54f5146101815780634eee424a146101b1575b600080fd5b6100ed60048036038101906100e89190611798565b610336565b005b61010960048036038101906101049190611828565b61034f565b6040516101169190611f7e565b60405180910390f35b61013960048036038101906101349190611828565b61036f565b604051610148939291906120c3565b60405180910390f35b61016b6004803603810190610166919061188d565b6103c6565b6040516101789190611e44565b60405180910390f35b61019b600480360381019061019691906118dc565b61058a565b6040516101a89190611e22565b60405180910390f35b6101cb60048036038101906101c69190611828565b6105f5565b6040516101d89190611e44565b60405180910390f35b6101fb60048036038101906101f69190611905565b610818565b6040516102089190611e44565b60405180910390f35b61022b60048036038101906102269190611828565b610ba1565b6040516102389190611e44565b60405180910390f35b61025b600480360381019061025691906118dc565b610ca3565b6040516102689190611e22565b60405180910390f35b61028b60048036038101906102869190611941565b610d0e565b6040516102989190611e5f565b60405180910390f35b6102bb60048036038101906102b691906117c1565b610ff4565b6040516102c89190611f7e565b60405180910390f35b6102eb60048036038101906102e69190611828565b6111f7565b6040516102fd9695949392919061204d565b60405180910390f35b610320600480360381019061031b9190611851565b611461565b60405161032d9190611e44565b60405180910390f35b8073ffffffffffffffffffffffffffffffffffffffff16ff5b600060016000838152602001908152602001600020600001549050919050565b60008060006001600085815260200190815260200160002060000154600160008681526020019081526020016000206001015460016000878152602001908152602001600020600201549250925092509193909250565b60008360016000868152602001908152602001600020600201541415610421576040517f08c379a000000000000000000000000000000000000000000000000000000000815260040161041890611ede565b60405180910390fd5b3073ffffffffffffffffffffffffffffffffffffffff163373ffffffffffffffffffffffffffffffffffffffff16146104c557610485336040516020016104689190611dc4565b604051602081830303815290604052805190602001206001611461565b6104c4576040517f08c379a00000000000000000000000000000000000000000000000000000000081526004016104bb90611f3e565b60405180910390fd5b5b836001600086815260200190815260200160002060020181905550826001600086815260200190815260200160002060000181905550816001600086815260200190815260200160002060010181905550600260008481526020019081526020016000208490806001815401808255809150506001900390600052602060002001600090919091909150558183857f480000bb1edad8ca1470381cc334b1917fbd51c6531f3a623ea8e0ec7e38a6e960405160405180910390a4600190509392505050565b6060600560008381526020019081526020016000208054806020026020016040519081016040528092919081815260200182805480156105e957602002820191906000526020600020905b8154815260200190600101908083116105d5575b50505050509050919050565b60003073ffffffffffffffffffffffffffffffffffffffff163373ffffffffffffffffffffffffffffffffffffffff161461069b5761065b3360405160200161063e9190611dc4565b604051602081830303815290604052805190602001206001611461565b61069a576040517f08c379a000000000000000000000000000000000000000000000000000000000815260040161069190611f3e565b60405180910390fd5b5b6004600083815260200190815260200160002060020160009054906101000a900473ffffffffffffffffffffffffffffffffffffffff1673ffffffffffffffffffffffffffffffffffffffff166004600084815260200190815260200160002060000154837f3cf57863a89432c61c4a27073c6ee39e8a764bff5a05aebfbcdcdc80b2e6130a60046000878152602001908152602001600020600101546004600088815260200190815260200160002060030160046000898152602001908152602001600020600401600460008a815260200190815260200160002060050160405161078a9493929190611ff3565b60405180910390a46004600083815260200190815260200160002060008082016000905560018201600090556002820160006101000a81549073ffffffffffffffffffffffffffffffffffffffff02191690556003820160006107ed91906114b6565b6004820160006107fd91906114b6565b60058201600061080d91906114f6565b505060019050919050565b600061084b3360405160200161082e9190611dc4565b604051602081830303815290604052805190602001206002611461565b61088a576040517f08c379a000000000000000000000000000000000000000000000000000000000815260040161088190611ebe565b60405180910390fd5b827fb3932da477fe5d6c8ff2eafef050c0f3a1af18fc07121001482600f36f3715d8836040516108ba9190611e44565b60405180910390a26060600115158315151415610b665760016003600086815260200190815260200160002060030160006101000a81548160ff0219169083151502179055506003600085815260200190815260200160002060000160009054906101000a900473ffffffffffffffffffffffffffffffffffffffff1673ffffffffffffffffffffffffffffffffffffffff16600360008681526020019081526020016000206002016040516109709190611e0b565b6000604051808303816000865af19150503d80600081146109ad576040519150601f19603f3d011682016040523d82523d6000602084013e6109b2565b606091505b5080925081935050508115610aab5760016003600086815260200190815260200160002060030160016101000a81548160ff02191690831515021790555060036000858152602001908152602001600020600101546003600086815260200190815260200160002060000160009054906101000a900473ffffffffffffffffffffffffffffffffffffffff1673ffffffffffffffffffffffffffffffffffffffff16857f1f920dbda597d7bf95035464170fa58d0a4b57f13a1c315ace6793b9f63688b860036000898152602001908152602001600020600201604051610a999190611e9c565b60405180910390a46001915050610b9b565b60036000858152602001908152602001600020600101546003600086815260200190815260200160002060000160009054906101000a900473ffffffffffffffffffffffffffffffffffffffff1673ffffffffffffffffffffffffffffffffffffffff16857fe10c49d9f7c71da23262367013434763cfdb2332267641728d25cd712c5c6a6860036000898152602001908152602001600020600201604051610b549190611e9c565b60405180910390a46000915050610b9b565b60006003600086815260200190815260200160002060030160006101000a81548160ff02191690831515021790555060019150505b92915050565b600081600160008481526020019081526020016000206002015414610bfb576040517f08c379a0000000000000000000000000000000000000000000000000000000008152600401610bf290611f5e565b60405180910390fd5b6001600083815260200190815260200160002060010154600160008481526020019081526020016000206000015460016000858152602001908152602001600020600201547f585a4aef50f8267a92b32412b331b20f7f8b96f2245b253b9cc50dcc621d339760405160405180910390a46001600083815260200190815260200160002060008082016000905560018201600090556002820160009055505060019050919050565b606060026000838152602001908152602001600020805480602002602001604051908101604052809291908181526020018280548015610d0257602002820191906000526020600020905b815481526020019060010190808311610cee575b50505050509050919050565b6000803088604051602001610d24929190611ddf565b6040516020818303038152906040528051906020012090503073ffffffffffffffffffffffffffffffffffffffff163373ffffffffffffffffffffffffffffffffffffffff1614610de057610da033604051602001610d839190611dc4565b604051602081830303815290604052805190602001206003611461565b610ddf576040517f08c379a0000000000000000000000000000000000000000000000000000000008152600401610dd690611efe565b60405180910390fd5b5b8573ffffffffffffffffffffffffffffffffffffffff166004600083815260200190815260200160002060020160009054906101000a900473ffffffffffffffffffffffffffffffffffffffff1673ffffffffffffffffffffffffffffffffffffffff1614610e8457600560008981526020019081526020016000208190806001815401808255809150506001900390600052602060002001600090919091909150555b876004600083815260200190815260200160002060000181905550866004600083815260200190815260200160002060010181905550856004600083815260200190815260200160002060020160006101000a81548173ffffffffffffffffffffffffffffffffffffffff021916908373ffffffffffffffffffffffffffffffffffffffff16021790555084600460008381526020019081526020016000206003019080519060200190610f39929190611536565b5083600460008381526020019081526020016000206004019080519060200190610f64929190611536565b5082600460008381526020019081526020016000206005019080519060200190610f8f9291906115bc565b508573ffffffffffffffffffffffffffffffffffffffff1688827f46149b18aa084502c3f12bc75e19eda8bda8d102b82cce8474677a6d0d5f43c58a898989604051610fde9493929190611f99565b60405180910390a4809150509695505050505050565b6000600360008054815260200190815260200160002060030160019054906101000a900460ff161561105b576040517f08c379a000000000000000000000000000000000000000000000000000000000815260040161105290611f1e565b60405180910390fd5b83600360008054815260200190815260200160002060000160006101000a81548173ffffffffffffffffffffffffffffffffffffffff021916908373ffffffffffffffffffffffffffffffffffffffff1602179055508260036000805481526020019081526020016000206001018190555081600360008054815260200190815260200160002060020190805190602001906110f8929190611536565b50828473ffffffffffffffffffffffffffffffffffffffff166000547f8afcfabcb00e47a53a8fc3e9f23ff47ee1926194bb1350dd007c50b412a6cee8856040516111439190611e7a565b60405180910390a461117c3360405160200161115f9190611dc4565b604051602081830303815290604052805190602001206001611461565b806111b457506111b3336040516020016111969190611dc4565b604051602081830303815290604052805190602001206002611461565b5b156111c8576111c66000546001610818565b505b6000808154809291906111da90612364565b919050555060016000546111ee9190612227565b90509392505050565b6000806000606080606060046000888152602001908152602001600020600001546004600089815260200190815260200160002060010154600460008a815260200190815260200160002060020160009054906101000a900473ffffffffffffffffffffffffffffffffffffffff16600460008b8152602001908152602001600020600301600460008c8152602001908152602001600020600401600460008d81526020019081526020016000206005018280546112b490612301565b80601f01602080910402602001604051908101604052809291908181526020018280546112e090612301565b801561132d5780601f106113025761010080835404028352916020019161132d565b820191906000526020600020905b81548152906001019060200180831161131057829003601f168201915b5050505050925081805461134090612301565b80601f016020809104026020016040519081016040528092919081815260200182805461136c90612301565b80156113b95780601f1061138e576101008083540402835291602001916113b9565b820191906000526020600020905b81548152906001019060200180831161139c57829003601f168201915b505050505091508080546113cc90612301565b80601f01602080910402602001604051908101604052809291908181526020018280546113f890612301565b80156114455780601f1061141a57610100808354040283529160200191611445565b820191906000526020600020905b81548152906001019060200180831161142857829003601f168201915b5050505050905095509550955095509550955091939550919395565b6000806000801b6001600086815260200190815260200160002060020154141561148f5760009150506114b0565b82600160008681526020019081526020016000206000015411159050809150505b92915050565b5080546114c290612301565b6000825580601f106114d457506114f3565b601f0160209004906000526020600020908101906114f29190611642565b5b50565b50805461150290612301565b6000825580601f106115145750611533565b601f0160209004906000526020600020908101906115329190611642565b5b50565b82805461154290612301565b90600052602060002090601f01602090048101928261156457600085556115ab565b82601f1061157d57805160ff19168380011785556115ab565b828001600101855582156115ab579182015b828111156115aa57825182559160200191906001019061158f565b5b5090506115b89190611642565b5090565b8280546115c890612301565b90600052602060002090601f0160209004810192826115ea5760008555611631565b82601f1061160357805160ff1916838001178555611631565b82800160010185558215611631579182015b82811115611630578251825591602001919060010190611615565b5b50905061163e9190611642565b5090565b5b8082111561165b576000816000905550600101611643565b5090565b600061167261166d8461211f565b6120fa565b90508281526020810184848401111561168a57600080fd5b6116958482856122bf565b509392505050565b60006116b06116ab84612150565b6120fa565b9050828152602081018484840111156116c857600080fd5b6116d38482856122bf565b509392505050565b6000813590506116ea816125c8565b92915050565b6000813590506116ff816125df565b92915050565b600081359050611714816125f6565b92915050565b6000813590506117298161260d565b92915050565b600082601f83011261174057600080fd5b813561175084826020860161165f565b91505092915050565b600082601f83011261176a57600080fd5b813561177a84826020860161169d565b91505092915050565b60008135905061179281612624565b92915050565b6000602082840312156117aa57600080fd5b60006117b8848285016116f0565b91505092915050565b6000806000606084860312156117d657600080fd5b60006117e4868287016116db565b93505060206117f586828701611783565b925050604084013567ffffffffffffffff81111561181257600080fd5b61181e8682870161172f565b9150509250925092565b60006020828403121561183a57600080fd5b60006118488482850161171a565b91505092915050565b6000806040838503121561186457600080fd5b60006118728582860161171a565b925050602061188385828601611783565b9150509250929050565b6000806000606084860312156118a257600080fd5b60006118b08682870161171a565b93505060206118c186828701611783565b92505060406118d286828701611783565b9150509250925092565b6000602082840312156118ee57600080fd5b60006118fc84828501611783565b91505092915050565b6000806040838503121561191857600080fd5b600061192685828601611783565b925050602061193785828601611705565b9150509250929050565b60008060008060008060c0878903121561195a57600080fd5b600061196889828a01611783565b965050602061197989828a01611783565b955050604061198a89828a016116db565b945050606087013567ffffffffffffffff8111156119a757600080fd5b6119b389828a0161172f565b935050608087013567ffffffffffffffff8111156119d057600080fd5b6119dc89828a0161172f565b92505060a087013567ffffffffffffffff8111156119f957600080fd5b611a0589828a01611759565b9150509295509295509295565b6000611a1e8383611abd565b60208301905092915050565b611a338161225b565b82525050565b611a4a611a458261225b565b6123ad565b82525050565b6000611a5b826121bb565b611a6581856121e9565b9350611a7083612181565b8060005b83811015611aa1578151611a888882611a12565b9750611a93836121dc565b925050600181019050611a74565b5085935050505092915050565b611ab78161227f565b82525050565b611ac68161228b565b82525050565b611ad58161228b565b82525050565b6000611ae6826121c6565b611af081856121fa565b9350611b008185602086016122ce565b611b0981612468565b840191505092915050565b60008154611b2181612301565b611b2b81866121fa565b94506001821660008114611b465760018114611b5857611b8b565b60ff1983168652602086019350611b8b565b611b6185612191565b60005b83811015611b8357815481890152600182019150602081019050611b64565b808801955050505b50505092915050565b60008154611ba181612301565b611bab818661220b565b94506001821660008114611bc65760018114611bd757611c0a565b60ff19831686528186019350611c0a565b611be085612191565b60005b83811015611c0257815481890152600182019150602081019050611be3565b838801955050505b50505092915050565b6000611c1e826121d1565b611c288185612216565b9350611c388185602086016122ce565b611c4181612468565b840191505092915050565b60008154611c5981612301565b611c638186612216565b94506001821660008114611c7e5760018114611c9057611cc3565b60ff1983168652602086019350611cc3565b611c99856121a6565b60005b83811015611cbb57815481890152600182019150602081019050611c9c565b808801955050505b50505092915050565b6000611cd9601f83612216565b9150611ce482612486565b602082019050919050565b6000611cfc601283612216565b9150611d07826124af565b602082019050919050565b6000611d1f602583612216565b9150611d2a826124d8565b604082019050919050565b6000611d42601083612216565b9150611d4d82612527565b602082019050919050565b6000611d65602383612216565b9150611d7082612550565b604082019050919050565b6000611d88600b83612216565b9150611d938261259f565b602082019050919050565b611da7816122b5565b82525050565b611dbe611db9826122b5565b6123d1565b82525050565b6000611dd08284611a39565b60148201915081905092915050565b6000611deb8285611a39565b601482019150611dfb8284611dad565b6020820191508190509392505050565b6000611e178284611b94565b915081905092915050565b60006020820190508181036000830152611e3c8184611a50565b905092915050565b6000602082019050611e596000830184611aae565b92915050565b6000602082019050611e746000830184611acc565b92915050565b60006020820190508181036000830152611e948184611adb565b905092915050565b60006020820190508181036000830152611eb68184611b14565b905092915050565b60006020820190508181036000830152611ed781611ccc565b9050919050565b60006020820190508181036000830152611ef781611cef565b9050919050565b60006020820190508181036000830152611f1781611d12565b9050919050565b60006020820190508181036000830152611f3781611d35565b9050919050565b60006020820190508181036000830152611f5781611d58565b9050919050565b60006020820190508181036000830152611f7781611d7b565b9050919050565b6000602082019050611f936000830184611d9e565b92915050565b6000608082019050611fae6000830187611d9e565b8181036020830152611fc08186611adb565b90508181036040830152611fd48185611adb565b90508181036060830152611fe88184611c13565b905095945050505050565b60006080820190506120086000830187611d9e565b818103602083015261201a8186611b14565b9050818103604083015261202e8185611b14565b905081810360608301526120428184611c4c565b905095945050505050565b600060c0820190506120626000830189611d9e565b61206f6020830188611d9e565b61207c6040830187611a2a565b818103606083015261208e8186611adb565b905081810360808301526120a28185611adb565b905081810360a08301526120b68184611c13565b9050979650505050505050565b60006060820190506120d86000830186611d9e565b6120e56020830185611d9e565b6120f26040830184611acc565b949350505050565b6000612104612115565b90506121108282612333565b919050565b6000604051905090565b600067ffffffffffffffff82111561213a57612139612439565b5b61214382612468565b9050602081019050919050565b600067ffffffffffffffff82111561216b5761216a612439565b5b61217482612468565b9050602081019050919050565b6000819050602082019050919050565b60008190508160005260206000209050919050565b60008190508160005260206000209050919050565b600081519050919050565b600081519050919050565b600081519050919050565b6000602082019050919050565b600082825260208201905092915050565b600082825260208201905092915050565b600081905092915050565b600082825260208201905092915050565b6000612232826122b5565b915061223d836122b5565b9250828210156122505761224f6123db565b5b828203905092915050565b600061226682612295565b9050919050565b600061227882612295565b9050919050565b60008115159050919050565b6000819050919050565b600073ffffffffffffffffffffffffffffffffffffffff82169050919050565b6000819050919050565b82818337600083830152505050565b60005b838110156122ec5780820151818401526020810190506122d1565b838111156122fb576000848401525b50505050565b6000600282049050600182168061231957607f821691505b6020821081141561232d5761232c61240a565b5b50919050565b61233c82612468565b810181811067ffffffffffffffff8211171561235b5761235a612439565b5b80604052505050565b600061236f826122b5565b91507fffffffffffffffffffffffffffffffffffffffffffffffffffffffffffffffff8214156123a2576123a16123db565b5b600182019050919050565b60006123b8826123bf565b9050919050565b60006123ca82612479565b9050919050565b6000819050919050565b7f4e487b7100000000000000000000000000000000000000000000000000000000600052601160045260246000fd5b7f4e487b7100000000000000000000000000000000000000000000000000000000600052602260045260246000fd5b7f4e487b7100000000000000000000000000000000000000000000000000000000600052604160045260246000fd5b6000601f19601f8301169050919050565b60008160601b9050919050565b7f53656e64657220646f6573206e6f74206861766520616374696f6e206b657900600082015250565b7f4b657920616c7265616479206578697374730000000000000000000000000000600082015250565b7f53656e64657220646f6573206e6f74206861766520636c61696d207369676e6560008201527f72206b6579000000000000000000000000000000000000000000000000000000602082015250565b7f416c726561647920657865637574656400000000000000000000000000000000600082015250565b7f53656e64657220646f6573206e6f742068617665206d616e6167656d656e742060008201527f6b65790000000000000000000000000000000000000000000000000000000000602082015250565b7f4e6f2073756368206b6579000000000000000000000000000000000000000000600082015250565b6125d18161225b565b81146125dc57600080fd5b50565b6125e88161226d565b81146125f357600080fd5b50565b6125ff8161227f565b811461260a57600080fd5b50565b6126168161228b565b811461262157600080fd5b50565b61262d816122b5565b811461263857600080fd5b5056fea264697066735822122058d90efa96a433b18c9f8e82b3ab682e6228fa515e81dbad6ce2170f75f6478364736f6c63430008010033a26469706673582212208c62d4f319985a827fb3edee07a75c5ddbb2ed354142c867e6f13e1fd14e8cdb64736f6c63430008010033",
  "immutableReferences": {},
  "source": "// SPDX-License-Identifier: MIT\r\npragma solidity >=0.4.22 <0.9.0;\r\nimport \"./xClaimHolder.sol\";\r\nimport \"./xKeyHolder.sol\";\r\n\r\ncontract EthereumClaimsRegistry {\r\n    address public owner;\r\n    event ClaimHolderAdded(address claimHolder);\r\n\r\n    mapping(address => xClaimHolder) public claimHolder;\r\n\r\n    constructor() {\r\n        owner = msg.sender;\r\n    }\r\n\r\n    function addClaimHolder() public returns (address contractAddr) {\r\n        require(msg.sender == owner, \"You are not the owner\");\r\n        xClaimHolder holder = new xClaimHolder();\r\n        contractAddr = address(holder);\r\n        claimHolder[contractAddr] = holder;\r\n        emit ClaimHolderAdded(address(holder));\r\n        return contractAddr;\r\n    }\r\n\r\n    function addClaim(\r\n        address holder,\r\n        uint256 _claimType,\r\n        uint256 _scheme,\r\n        address _issuer,\r\n        bytes memory _signature,\r\n        bytes memory _data,\r\n        string memory _uri\r\n    ) public returns (bytes32 claimID) {\r\n        return\r\n            claimHolder[holder].addClaim(\r\n                _claimType,\r\n                _scheme,\r\n                _issuer,\r\n                _signature,\r\n                _data,\r\n                _uri\r\n            );\r\n    }\r\n\r\n    function removeClaim(address holder, bytes32 _claimId) public {\r\n        claimHolder[holder].removeClaim(_claimId);\r\n    }\r\n\r\n    function getClaim(address holder, bytes32 _claimId)\r\n        public\r\n        view\r\n        returns (\r\n            uint256 claimType,\r\n            uint256 scheme,\r\n            address issuer,\r\n            bytes memory signature,\r\n            bytes memory data,\r\n            string memory uri\r\n        )\r\n    {\r\n        return claimHolder[holder].getClaim(_claimId);\r\n    }\r\n\r\n    function getClaimIdsByType(address holder, uint256 _claimType)\r\n        public\r\n        view\r\n        returns (bytes32[] memory claimIds)\r\n    {\r\n        return claimHolder[holder].getClaimIdsByType(_claimType);\r\n    }\r\n\r\n    function getClaimHolder(address addr) public view returns (xClaimHolder) {\r\n        return claimHolder[addr];\r\n    }\r\n\r\n    function destroy(address holder) public {\r\n        require(msg.sender == owner, \"You are not the owner\");\r\n        claimHolder[holder].destroy(payable(holder));\r\n    }\r\n}\r\n",
  "sourcePath": "D:/XAMPP/htdocs/issuerMod/contracts/EthereumClaimsRegistry.sol",
  "compiler": {
    "name": "solc",
    "version": "0.8.1+commit.df193b15.Emscripten.clang"
  },
  "schemaVersion": "3.3.4",
  "updatedAt": "2021-12-21T13:08:21.459Z",
  "networkType": "ethereum",
  "devdoc": {
    "kind": "dev",
    "methods": {},
    "version": 1
  },
  "userdoc": {
    "kind": "user",
    "methods": {},
    "version": 1
  }
}