{
  "contractName": "EthereumClaimsRegistry",
  "abi": [
    {
      "anonymous": false,
      "inputs": [
        {
          "indexed": false,
          "internalType": "address",
          "name": "claimHolder",
          "type": "address"
        }
      ],
      "name": "ClaimHolderAdded",
      "type": "event"
    },
    {
      "inputs": [
        {
          "internalType": "address",
          "name": "",
          "type": "address"
        }
      ],
      "name": "claimHolder",
      "outputs": [
        {
          "internalType": "contract xClaimHolder",
          "name": "",
          "type": "address"
        }
      ],
      "stateMutability": "view",
      "type": "function",
      "constant": true
    },
    {
      "inputs": [],
      "name": "addClaimHolder",
      "outputs": [
        {
          "internalType": "address",
          "name": "contractAddr",
          "type": "address"
        }
      ],
      "stateMutability": "nonpayable",
      "type": "function"
    },
    {
      "inputs": [
        {
          "internalType": "address",
          "name": "holder",
          "type": "address"
        },
        {
          "internalType": "uint256",
          "name": "_claimType",
          "type": "uint256"
        },
        {
          "internalType": "uint256",
          "name": "_scheme",
          "type": "uint256"
        },
        {
          "internalType": "address",
          "name": "_issuer",
          "type": "address"
        },
        {
          "internalType": "bytes",
          "name": "_signature",
          "type": "bytes"
        },
        {
          "internalType": "bytes",
          "name": "_data",
          "type": "bytes"
        },
        {
          "internalType": "string",
          "name": "_uri",
          "type": "string"
        }
      ],
      "name": "addClaim",
      "outputs": [
        {
          "internalType": "bytes32",
          "name": "claimID",
          "type": "bytes32"
        }
      ],
      "stateMutability": "nonpayable",
      "type": "function"
    },
    {
      "inputs": [
        {
          "internalType": "address",
          "name": "holder",
          "type": "address"
        },
        {
          "internalType": "bytes32",
          "name": "_claimId",
          "type": "bytes32"
        }
      ],
      "name": "removeClaim",
      "outputs": [],
      "stateMutability": "nonpayable",
      "type": "function"
    },
    {
      "inputs": [
        {
          "internalType": "address",
          "name": "holder",
          "type": "address"
        },
        {
          "internalType": "bytes32",
          "name": "_claimId",
          "type": "bytes32"
        }
      ],
      "name": "getClaim",
      "outputs": [
        {
          "internalType": "uint256",
          "name": "claimType",
          "type": "uint256"
        },
        {
          "internalType": "uint256",
          "name": "scheme",
          "type": "uint256"
        },
        {
          "internalType": "address",
          "name": "issuer",
          "type": "address"
        },
        {
          "internalType": "bytes",
          "name": "signature",
          "type": "bytes"
        },
        {
          "internalType": "bytes",
          "name": "data",
          "type": "bytes"
        },
        {
          "internalType": "string",
          "name": "uri",
          "type": "string"
        }
      ],
      "stateMutability": "view",
      "type": "function",
      "constant": true
    },
    {
      "inputs": [
        {
          "internalType": "address",
          "name": "holder",
          "type": "address"
        },
        {
          "internalType": "uint256",
          "name": "_claimType",
          "type": "uint256"
        }
      ],
      "name": "getClaimIdsByType",
      "outputs": [
        {
          "internalType": "bytes32[]",
          "name": "claimIds",
          "type": "bytes32[]"
        }
      ],
      "stateMutability": "view",
      "type": "function",
      "constant": true
    },
    {
      "inputs": [
        {
          "internalType": "address",
          "name": "addr",
          "type": "address"
        }
      ],
      "name": "getClaimHolder",
      "outputs": [
        {
          "internalType": "contract xClaimHolder",
          "name": "",
          "type": "address"
        }
      ],
      "stateMutability": "view",
      "type": "function",
      "constant": true
    }
  ],
  "bytecode": "0x608060405234801561001057600080fd5b50613ab4806100206000396000f3fe60806040523480156200001157600080fd5b5060043610620000885760003560e01c8063a1c8ca7e1162000063578063a1c8ca7e1462000134578063dbfe87e11462000154578063ed71842a1462000176578063fdde0e6614620001ac5762000088565b80630e2f9575146200008d578063423401b314620000c35780634361443f14620000f9575b600080fd5b620000ab6004803603810190620000a5919062000a8e565b620001e2565b604051620000ba919062000f6b565b60405180910390f35b620000e16004803603810190620000db919062000a8e565b6200024a565b604051620000f0919062000f6b565b60405180910390f35b62000117600480360381019062000111919062000aba565b6200027d565b6040516200012b9695949392919062000fa5565b60405180910390f35b6200015260048036038101906200014c919062000aba565b6200038f565b005b6200015e62000483565b6040516200016d919062000f0d565b60405180910390f35b6200019460048036038101906200018e919062000b3c565b62000571565b604051620001a3919062000f4e565b60405180910390f35b620001ca6004803603810190620001c4919062000afb565b62000679565b604051620001d9919062000f2a565b60405180910390f35b60008060008373ffffffffffffffffffffffffffffffffffffffff1673ffffffffffffffffffffffffffffffffffffffff16815260200190815260200160002060009054906101000a900473ffffffffffffffffffffffffffffffffffffffff169050919050565b60006020528060005260406000206000915054906101000a900473ffffffffffffffffffffffffffffffffffffffff1681565b600080600060608060606000808973ffffffffffffffffffffffffffffffffffffffff1673ffffffffffffffffffffffffffffffffffffffff16815260200190815260200160002060009054906101000a900473ffffffffffffffffffffffffffffffffffffffff1673ffffffffffffffffffffffffffffffffffffffff1663c9100bcb886040518263ffffffff1660e01b815260040162000320919062000f4e565b60006040518083038186803b1580156200033957600080fd5b505afa1580156200034e573d6000803e3d6000fd5b505050506040513d6000823e3d601f19601f8201168201806040525081019062000379919062000cd1565b9550955095509550955095509295509295509295565b6000808373ffffffffffffffffffffffffffffffffffffffff1673ffffffffffffffffffffffffffffffffffffffff16815260200190815260200160002060009054906101000a900473ffffffffffffffffffffffffffffffffffffffff1673ffffffffffffffffffffffffffffffffffffffff16634eee424a826040518263ffffffff1660e01b815260040162000428919062000f4e565b602060405180830381600087803b1580156200044357600080fd5b505af115801562000458573d6000803e3d6000fd5b505050506040513d601f19601f820116820180604052508101906200047e919062000c79565b505050565b600080604051620004949062000775565b604051809103906000f080158015620004b1573d6000803e3d6000fd5b509050809150806000808473ffffffffffffffffffffffffffffffffffffffff1673ffffffffffffffffffffffffffffffffffffffff16815260200190815260200160002060006101000a81548173ffffffffffffffffffffffffffffffffffffffff021916908373ffffffffffffffffffffffffffffffffffffffff1602179055507fafb6f8637d656c4460e35a55ee8a5366eea247a9f2730f3c002540c353be08708160405162000565919062000f0d565b60405180910390a15090565b60008060008973ffffffffffffffffffffffffffffffffffffffff1673ffffffffffffffffffffffffffffffffffffffff16815260200190815260200160002060009054906101000a900473ffffffffffffffffffffffffffffffffffffffff1673ffffffffffffffffffffffffffffffffffffffff1663b1a34e0d8888888888886040518763ffffffff1660e01b8152600401620006169695949392919062000fa5565b602060405180830381600087803b1580156200063157600080fd5b505af115801562000646573d6000803e3d6000fd5b505050506040513d601f19601f820116820180604052508101906200066c919062000ca5565b9050979650505050505050565b60606000808473ffffffffffffffffffffffffffffffffffffffff1673ffffffffffffffffffffffffffffffffffffffff16815260200190815260200160002060009054906101000a900473ffffffffffffffffffffffffffffffffffffffff1673ffffffffffffffffffffffffffffffffffffffff1663262b54f5836040518263ffffffff1660e01b815260040162000714919062000f88565b60006040518083038186803b1580156200072d57600080fd5b505afa15801562000742573d6000803e3d6000fd5b505050506040513d6000823e3d601f19601f820116820180604052508101906200076d919062000c34565b905092915050565b61278380620012fc83390190565b60006200079a620007948462001050565b62001027565b90508083825260208201905082856020860282011115620007ba57600080fd5b60005b85811015620007ee5781620007d3888262000995565b845260208401935060208301925050600181019050620007bd565b5050509392505050565b60006200080f62000809846200107f565b62001027565b9050828152602081018484840111156200082857600080fd5b62000835848285620011d8565b509392505050565b6000620008546200084e846200107f565b62001027565b9050828152602081018484840111156200086d57600080fd5b6200087a848285620011e7565b509392505050565b6000620008996200089384620010b5565b62001027565b905082815260208101848484011115620008b257600080fd5b620008bf848285620011d8565b509392505050565b6000620008de620008d884620010b5565b62001027565b905082815260208101848484011115620008f757600080fd5b62000904848285620011e7565b509392505050565b6000813590506200091d8162001293565b92915050565b600081519050620009348162001293565b92915050565b600082601f8301126200094c57600080fd5b81516200095e84826020860162000783565b91505092915050565b6000815190506200097881620012ad565b92915050565b6000813590506200098f81620012c7565b92915050565b600081519050620009a681620012c7565b92915050565b600082601f830112620009be57600080fd5b8135620009d0848260208601620007f8565b91505092915050565b600082601f830112620009eb57600080fd5b8151620009fd8482602086016200083d565b91505092915050565b600082601f83011262000a1857600080fd5b813562000a2a84826020860162000882565b91505092915050565b600082601f83011262000a4557600080fd5b815162000a57848260208601620008c7565b91505092915050565b60008135905062000a7181620012e1565b92915050565b60008151905062000a8881620012e1565b92915050565b60006020828403121562000aa157600080fd5b600062000ab1848285016200090c565b91505092915050565b6000806040838503121562000ace57600080fd5b600062000ade858286016200090c565b925050602062000af1858286016200097e565b9150509250929050565b6000806040838503121562000b0f57600080fd5b600062000b1f858286016200090c565b925050602062000b328582860162000a60565b9150509250929050565b600080600080600080600060e0888a03121562000b5857600080fd5b600062000b688a828b016200090c565b975050602062000b7b8a828b0162000a60565b965050604062000b8e8a828b0162000a60565b955050606062000ba18a828b016200090c565b945050608088013567ffffffffffffffff81111562000bbf57600080fd5b62000bcd8a828b01620009ac565b93505060a088013567ffffffffffffffff81111562000beb57600080fd5b62000bf98a828b01620009ac565b92505060c088013567ffffffffffffffff81111562000c1757600080fd5b62000c258a828b0162000a06565b91505092959891949750929550565b60006020828403121562000c4757600080fd5b600082015167ffffffffffffffff81111562000c6257600080fd5b62000c70848285016200093a565b91505092915050565b60006020828403121562000c8c57600080fd5b600062000c9c8482850162000967565b91505092915050565b60006020828403121562000cb857600080fd5b600062000cc88482850162000995565b91505092915050565b60008060008060008060c0878903121562000ceb57600080fd5b600062000cfb89828a0162000a77565b965050602062000d0e89828a0162000a77565b955050604062000d2189828a0162000923565b945050606087015167ffffffffffffffff81111562000d3f57600080fd5b62000d4d89828a01620009d9565b935050608087015167ffffffffffffffff81111562000d6b57600080fd5b62000d7989828a01620009d9565b92505060a087015167ffffffffffffffff81111562000d9757600080fd5b62000da589828a0162000a33565b9150509295509295509295565b600062000dc0838362000e47565b60208301905092915050565b62000dd7816200115c565b82525050565b600062000dea82620010fb565b62000df6818562001129565b935062000e0383620010eb565b8060005b8381101562000e3a57815162000e1e888262000db2565b975062000e2b836200111c565b92505060018101905062000e07565b5085935050505092915050565b62000e52816200117c565b82525050565b62000e63816200117c565b82525050565b600062000e768262001106565b62000e8281856200113a565b935062000e94818560208601620011e7565b62000e9f8162001282565b840191505092915050565b62000eb581620011b0565b82525050565b600062000ec88262001111565b62000ed481856200114b565b935062000ee6818560208601620011e7565b62000ef18162001282565b840191505092915050565b62000f0781620011a6565b82525050565b600060208201905062000f24600083018462000dcc565b92915050565b6000602082019050818103600083015262000f46818462000ddd565b905092915050565b600060208201905062000f65600083018462000e58565b92915050565b600060208201905062000f82600083018462000eaa565b92915050565b600060208201905062000f9f600083018462000efc565b92915050565b600060c08201905062000fbc600083018962000efc565b62000fcb602083018862000efc565b62000fda604083018762000dcc565b818103606083015262000fee818662000e69565b9050818103608083015262001004818562000e69565b905081810360a08301526200101a818462000ebb565b9050979650505050505050565b60006200103362001046565b90506200104182826200121d565b919050565b6000604051905090565b600067ffffffffffffffff8211156200106e576200106d62001253565b5b602082029050602081019050919050565b600067ffffffffffffffff8211156200109d576200109c62001253565b5b620010a88262001282565b9050602081019050919050565b600067ffffffffffffffff821115620010d357620010d262001253565b5b620010de8262001282565b9050602081019050919050565b6000819050602082019050919050565b600081519050919050565b600081519050919050565b600081519050919050565b6000602082019050919050565b600082825260208201905092915050565b600082825260208201905092915050565b600082825260208201905092915050565b6000620011698262001186565b9050919050565b60008115159050919050565b6000819050919050565b600073ffffffffffffffffffffffffffffffffffffffff82169050919050565b6000819050919050565b6000620011bd82620011c4565b9050919050565b6000620011d18262001186565b9050919050565b82818337600083830152505050565b60005b8381101562001207578082015181840152602081019050620011ea565b8381111562001217576000848401525b50505050565b620012288262001282565b810181811067ffffffffffffffff821117156200124a576200124962001253565b5b80604052505050565b7f4e487b7100000000000000000000000000000000000000000000000000000000600052604160045260246000fd5b6000601f19601f8301169050919050565b6200129e816200115c565b8114620012aa57600080fd5b50565b620012b88162001170565b8114620012c457600080fd5b50565b620012d2816200117c565b8114620012de57600080fd5b50565b620012ec81620011a6565b8114620012f857600080fd5b5056fe60806040523480156200001157600080fd5b5060003360405160200162000027919062000132565b6040516020818303038152906040528051906020012090508060016000838152602001908152602001600020600201819055506001806000838152602001908152602001600020600001819055506001806000838152602001908152602001600020600101819055506002600060018152602001908152602001600020819080600181540180825580915050600190039060005260206000200160009091909190915055600180600083815260200190815260200160002060000154827f480000bb1edad8ca1470381cc334b1917fbd51c6531f3a623ea8e0ec7e38a6e960405160405180910390a450620001b8565b6200012c62000126826200014f565b62000183565b82525050565b600062000140828462000117565b60148201915081905092915050565b60006200015c8262000163565b9050919050565b600073ffffffffffffffffffffffffffffffffffffffff82169050919050565b6000620001908262000197565b9050919050565b6000620001a482620001ab565b9050919050565b60008160601b9050919050565b6125bb80620001c86000396000f3fe608060405234801561001057600080fd5b50600436106100b45760003560e01c8063862642f511610071578063862642f5146101db5780639010f7261461020b578063b1a34e0d1461023b578063b61d27f61461026b578063c9100bcb1461029b578063d202158d146102d0576100b4565b8063032c1a8a146100b957806312aaac70146100e95780631d3812401461011b578063262b54f51461014b5780634eee424a1461017b578063747442d3146101ab575b600080fd5b6100d360048036038101906100ce919061179b565b610300565b6040516100e09190611ef1565b60405180910390f35b61010360048036038101906100fe919061179b565b610320565b60405161011293929190612036565b60405180910390f35b61013560048036038101906101309190611800565b610377565b6040516101429190611db7565b60405180910390f35b6101656004803603810190610160919061184f565b61053b565b6040516101729190611d95565b60405180910390f35b6101956004803603810190610190919061179b565b6105a6565b6040516101a29190611db7565b60405180910390f35b6101c560048036038101906101c09190611878565b6107c9565b6040516101d29190611db7565b60405180910390f35b6101f560048036038101906101f0919061179b565b610b52565b6040516102029190611db7565b60405180910390f35b6102256004803603810190610220919061184f565b610c54565b6040516102329190611d95565b60405180910390f35b610255600480360381019061025091906118b4565b610cbf565b6040516102629190611dd2565b60405180910390f35b61028560048036038101906102809190611734565b610fa5565b6040516102929190611ef1565b60405180910390f35b6102b560048036038101906102b0919061179b565b6111a8565b6040516102c796959493929190611fc0565b60405180910390f35b6102ea60048036038101906102e591906117c4565b611412565b6040516102f79190611db7565b60405180910390f35b600060016000838152602001908152602001600020600001549050919050565b60008060006001600085815260200190815260200160002060000154600160008681526020019081526020016000206001015460016000878152602001908152602001600020600201549250925092509193909250565b600083600160008681526020019081526020016000206002015414156103d2576040517f08c379a00000000000000000000000000000000000000000000000000000000081526004016103c990611e51565b60405180910390fd5b3073ffffffffffffffffffffffffffffffffffffffff163373ffffffffffffffffffffffffffffffffffffffff161461047657610436336040516020016104199190611d37565b604051602081830303815290604052805190602001206001611412565b610475576040517f08c379a000000000000000000000000000000000000000000000000000000000815260040161046c90611eb1565b60405180910390fd5b5b836001600086815260200190815260200160002060020181905550826001600086815260200190815260200160002060000181905550816001600086815260200190815260200160002060010181905550600260008481526020019081526020016000208490806001815401808255809150506001900390600052602060002001600090919091909150558183857f480000bb1edad8ca1470381cc334b1917fbd51c6531f3a623ea8e0ec7e38a6e960405160405180910390a4600190509392505050565b60606005600083815260200190815260200160002080548060200260200160405190810160405280929190818152602001828054801561059a57602002820191906000526020600020905b815481526020019060010190808311610586575b50505050509050919050565b60003073ffffffffffffffffffffffffffffffffffffffff163373ffffffffffffffffffffffffffffffffffffffff161461064c5761060c336040516020016105ef9190611d37565b604051602081830303815290604052805190602001206001611412565b61064b576040517f08c379a000000000000000000000000000000000000000000000000000000000815260040161064290611eb1565b60405180910390fd5b5b6004600083815260200190815260200160002060020160009054906101000a900473ffffffffffffffffffffffffffffffffffffffff1673ffffffffffffffffffffffffffffffffffffffff166004600084815260200190815260200160002060000154837f3cf57863a89432c61c4a27073c6ee39e8a764bff5a05aebfbcdcdc80b2e6130a60046000878152602001908152602001600020600101546004600088815260200190815260200160002060030160046000898152602001908152602001600020600401600460008a815260200190815260200160002060050160405161073b9493929190611f66565b60405180910390a46004600083815260200190815260200160002060008082016000905560018201600090556002820160006101000a81549073ffffffffffffffffffffffffffffffffffffffff021916905560038201600061079e9190611467565b6004820160006107ae9190611467565b6005820160006107be91906114a7565b505060019050919050565b60006107fc336040516020016107df9190611d37565b604051602081830303815290604052805190602001206002611412565b61083b576040517f08c379a000000000000000000000000000000000000000000000000000000000815260040161083290611e31565b60405180910390fd5b827fb3932da477fe5d6c8ff2eafef050c0f3a1af18fc07121001482600f36f3715d88360405161086b9190611db7565b60405180910390a26060600115158315151415610b175760016003600086815260200190815260200160002060030160006101000a81548160ff0219169083151502179055506003600085815260200190815260200160002060000160009054906101000a900473ffffffffffffffffffffffffffffffffffffffff1673ffffffffffffffffffffffffffffffffffffffff16600360008681526020019081526020016000206002016040516109219190611d7e565b6000604051808303816000865af19150503d806000811461095e576040519150601f19603f3d011682016040523d82523d6000602084013e610963565b606091505b5080925081935050508115610a5c5760016003600086815260200190815260200160002060030160016101000a81548160ff02191690831515021790555060036000858152602001908152602001600020600101546003600086815260200190815260200160002060000160009054906101000a900473ffffffffffffffffffffffffffffffffffffffff1673ffffffffffffffffffffffffffffffffffffffff16857f1f920dbda597d7bf95035464170fa58d0a4b57f13a1c315ace6793b9f63688b860036000898152602001908152602001600020600201604051610a4a9190611e0f565b60405180910390a46001915050610b4c565b60036000858152602001908152602001600020600101546003600086815260200190815260200160002060000160009054906101000a900473ffffffffffffffffffffffffffffffffffffffff1673ffffffffffffffffffffffffffffffffffffffff16857fe10c49d9f7c71da23262367013434763cfdb2332267641728d25cd712c5c6a6860036000898152602001908152602001600020600201604051610b059190611e0f565b60405180910390a46000915050610b4c565b60006003600086815260200190815260200160002060030160006101000a81548160ff02191690831515021790555060019150505b92915050565b600081600160008481526020019081526020016000206002015414610bac576040517f08c379a0000000000000000000000000000000000000000000000000000000008152600401610ba390611ed1565b60405180910390fd5b6001600083815260200190815260200160002060010154600160008481526020019081526020016000206000015460016000858152602001908152602001600020600201547f585a4aef50f8267a92b32412b331b20f7f8b96f2245b253b9cc50dcc621d339760405160405180910390a46001600083815260200190815260200160002060008082016000905560018201600090556002820160009055505060019050919050565b606060026000838152602001908152602001600020805480602002602001604051908101604052809291908181526020018280548015610cb357602002820191906000526020600020905b815481526020019060010190808311610c9f575b50505050509050919050565b6000808588604051602001610cd5929190611d52565b6040516020818303038152906040528051906020012090503073ffffffffffffffffffffffffffffffffffffffff163373ffffffffffffffffffffffffffffffffffffffff1614610d9157610d5133604051602001610d349190611d37565b604051602081830303815290604052805190602001206003611412565b610d90576040517f08c379a0000000000000000000000000000000000000000000000000000000008152600401610d8790611e71565b60405180910390fd5b5b8573ffffffffffffffffffffffffffffffffffffffff166004600083815260200190815260200160002060020160009054906101000a900473ffffffffffffffffffffffffffffffffffffffff1673ffffffffffffffffffffffffffffffffffffffff1614610e3557600560008981526020019081526020016000208190806001815401808255809150506001900390600052602060002001600090919091909150555b876004600083815260200190815260200160002060000181905550866004600083815260200190815260200160002060010181905550856004600083815260200190815260200160002060020160006101000a81548173ffffffffffffffffffffffffffffffffffffffff021916908373ffffffffffffffffffffffffffffffffffffffff16021790555084600460008381526020019081526020016000206003019080519060200190610eea9291906114e7565b5083600460008381526020019081526020016000206004019080519060200190610f159291906114e7565b5082600460008381526020019081526020016000206005019080519060200190610f4092919061156d565b508573ffffffffffffffffffffffffffffffffffffffff1688827f46149b18aa084502c3f12bc75e19eda8bda8d102b82cce8474677a6d0d5f43c58a898989604051610f8f9493929190611f0c565b60405180910390a4809150509695505050505050565b6000600360008054815260200190815260200160002060030160019054906101000a900460ff161561100c576040517f08c379a000000000000000000000000000000000000000000000000000000000815260040161100390611e91565b60405180910390fd5b83600360008054815260200190815260200160002060000160006101000a81548173ffffffffffffffffffffffffffffffffffffffff021916908373ffffffffffffffffffffffffffffffffffffffff1602179055508260036000805481526020019081526020016000206001018190555081600360008054815260200190815260200160002060020190805190602001906110a99291906114e7565b50828473ffffffffffffffffffffffffffffffffffffffff166000547f8afcfabcb00e47a53a8fc3e9f23ff47ee1926194bb1350dd007c50b412a6cee8856040516110f49190611ded565b60405180910390a461112d336040516020016111109190611d37565b604051602081830303815290604052805190602001206001611412565b806111655750611164336040516020016111479190611d37565b604051602081830303815290604052805190602001206002611412565b5b156111795761117760005460016107c9565b505b60008081548092919061118b906122c5565b9190505550600160005461119f919061219a565b90509392505050565b6000806000606080606060046000888152602001908152602001600020600001546004600089815260200190815260200160002060010154600460008a815260200190815260200160002060020160009054906101000a900473ffffffffffffffffffffffffffffffffffffffff16600460008b8152602001908152602001600020600301600460008c8152602001908152602001600020600401600460008d815260200190815260200160002060050182805461126590612262565b80601f016020809104026020016040519081016040528092919081815260200182805461129190612262565b80156112de5780601f106112b3576101008083540402835291602001916112de565b820191906000526020600020905b8154815290600101906020018083116112c157829003601f168201915b505050505092508180546112f190612262565b80601f016020809104026020016040519081016040528092919081815260200182805461131d90612262565b801561136a5780601f1061133f5761010080835404028352916020019161136a565b820191906000526020600020905b81548152906001019060200180831161134d57829003601f168201915b5050505050915080805461137d90612262565b80601f01602080910402602001604051908101604052809291908181526020018280546113a990612262565b80156113f65780601f106113cb576101008083540402835291602001916113f6565b820191906000526020600020905b8154815290600101906020018083116113d957829003601f168201915b5050505050905095509550955095509550955091939550919395565b6000806000801b60016000868152602001908152602001600020600201541415611440576000915050611461565b82600160008681526020019081526020016000206000015411159050809150505b92915050565b50805461147390612262565b6000825580601f1061148557506114a4565b601f0160209004906000526020600020908101906114a391906115f3565b5b50565b5080546114b390612262565b6000825580601f106114c557506114e4565b601f0160209004906000526020600020908101906114e391906115f3565b5b50565b8280546114f390612262565b90600052602060002090601f016020900481019282611515576000855561155c565b82601f1061152e57805160ff191683800117855561155c565b8280016001018555821561155c579182015b8281111561155b578251825591602001919060010190611540565b5b50905061156991906115f3565b5090565b82805461157990612262565b90600052602060002090601f01602090048101928261159b57600085556115e2565b82601f106115b457805160ff19168380011785556115e2565b828001600101855582156115e2579182015b828111156115e15782518255916020019190600101906115c6565b5b5090506115ef91906115f3565b5090565b5b8082111561160c5760008160009055506001016115f4565b5090565b600061162361161e84612092565b61206d565b90508281526020810184848401111561163b57600080fd5b611646848285612220565b509392505050565b600061166161165c846120c3565b61206d565b90508281526020810184848401111561167957600080fd5b611684848285612220565b509392505050565b60008135905061169b81612529565b92915050565b6000813590506116b081612540565b92915050565b6000813590506116c581612557565b92915050565b600082601f8301126116dc57600080fd5b81356116ec848260208601611610565b91505092915050565b600082601f83011261170657600080fd5b813561171684826020860161164e565b91505092915050565b60008135905061172e8161256e565b92915050565b60008060006060848603121561174957600080fd5b60006117578682870161168c565b93505060206117688682870161171f565b925050604084013567ffffffffffffffff81111561178557600080fd5b611791868287016116cb565b9150509250925092565b6000602082840312156117ad57600080fd5b60006117bb848285016116b6565b91505092915050565b600080604083850312156117d757600080fd5b60006117e5858286016116b6565b92505060206117f68582860161171f565b9150509250929050565b60008060006060848603121561181557600080fd5b6000611823868287016116b6565b93505060206118348682870161171f565b92505060406118458682870161171f565b9150509250925092565b60006020828403121561186157600080fd5b600061186f8482850161171f565b91505092915050565b6000806040838503121561188b57600080fd5b60006118998582860161171f565b92505060206118aa858286016116a1565b9150509250929050565b60008060008060008060c087890312156118cd57600080fd5b60006118db89828a0161171f565b96505060206118ec89828a0161171f565b95505060406118fd89828a0161168c565b945050606087013567ffffffffffffffff81111561191a57600080fd5b61192689828a016116cb565b935050608087013567ffffffffffffffff81111561194357600080fd5b61194f89828a016116cb565b92505060a087013567ffffffffffffffff81111561196c57600080fd5b61197889828a016116f5565b9150509295509295509295565b60006119918383611a30565b60208301905092915050565b6119a6816121ce565b82525050565b6119bd6119b8826121ce565b61230e565b82525050565b60006119ce8261212e565b6119d8818561215c565b93506119e3836120f4565b8060005b83811015611a145781516119fb8882611985565b9750611a068361214f565b9250506001810190506119e7565b5085935050505092915050565b611a2a816121e0565b82525050565b611a39816121ec565b82525050565b611a48816121ec565b82525050565b6000611a5982612139565b611a63818561216d565b9350611a7381856020860161222f565b611a7c816123c9565b840191505092915050565b60008154611a9481612262565b611a9e818661216d565b94506001821660008114611ab95760018114611acb57611afe565b60ff1983168652602086019350611afe565b611ad485612104565b60005b83811015611af657815481890152600182019150602081019050611ad7565b808801955050505b50505092915050565b60008154611b1481612262565b611b1e818661217e565b94506001821660008114611b395760018114611b4a57611b7d565b60ff19831686528186019350611b7d565b611b5385612104565b60005b83811015611b7557815481890152600182019150602081019050611b56565b838801955050505b50505092915050565b6000611b9182612144565b611b9b8185612189565b9350611bab81856020860161222f565b611bb4816123c9565b840191505092915050565b60008154611bcc81612262565b611bd68186612189565b94506001821660008114611bf15760018114611c0357611c36565b60ff1983168652602086019350611c36565b611c0c85612119565b60005b83811015611c2e57815481890152600182019150602081019050611c0f565b808801955050505b50505092915050565b6000611c4c601f83612189565b9150611c57826123e7565b602082019050919050565b6000611c6f601283612189565b9150611c7a82612410565b602082019050919050565b6000611c92602583612189565b9150611c9d82612439565b604082019050919050565b6000611cb5601083612189565b9150611cc082612488565b602082019050919050565b6000611cd8602383612189565b9150611ce3826124b1565b604082019050919050565b6000611cfb600b83612189565b9150611d0682612500565b602082019050919050565b611d1a81612216565b82525050565b611d31611d2c82612216565b612332565b82525050565b6000611d4382846119ac565b60148201915081905092915050565b6000611d5e82856119ac565b601482019150611d6e8284611d20565b6020820191508190509392505050565b6000611d8a8284611b07565b915081905092915050565b60006020820190508181036000830152611daf81846119c3565b905092915050565b6000602082019050611dcc6000830184611a21565b92915050565b6000602082019050611de76000830184611a3f565b92915050565b60006020820190508181036000830152611e078184611a4e565b905092915050565b60006020820190508181036000830152611e298184611a87565b905092915050565b60006020820190508181036000830152611e4a81611c3f565b9050919050565b60006020820190508181036000830152611e6a81611c62565b9050919050565b60006020820190508181036000830152611e8a81611c85565b9050919050565b60006020820190508181036000830152611eaa81611ca8565b9050919050565b60006020820190508181036000830152611eca81611ccb565b9050919050565b60006020820190508181036000830152611eea81611cee565b9050919050565b6000602082019050611f066000830184611d11565b92915050565b6000608082019050611f216000830187611d11565b8181036020830152611f338186611a4e565b90508181036040830152611f478185611a4e565b90508181036060830152611f5b8184611b86565b905095945050505050565b6000608082019050611f7b6000830187611d11565b8181036020830152611f8d8186611a87565b90508181036040830152611fa18185611a87565b90508181036060830152611fb58184611bbf565b905095945050505050565b600060c082019050611fd56000830189611d11565b611fe26020830188611d11565b611fef604083018761199d565b81810360608301526120018186611a4e565b905081810360808301526120158185611a4e565b905081810360a08301526120298184611b86565b9050979650505050505050565b600060608201905061204b6000830186611d11565b6120586020830185611d11565b6120656040830184611a3f565b949350505050565b6000612077612088565b90506120838282612294565b919050565b6000604051905090565b600067ffffffffffffffff8211156120ad576120ac61239a565b5b6120b6826123c9565b9050602081019050919050565b600067ffffffffffffffff8211156120de576120dd61239a565b5b6120e7826123c9565b9050602081019050919050565b6000819050602082019050919050565b60008190508160005260206000209050919050565b60008190508160005260206000209050919050565b600081519050919050565b600081519050919050565b600081519050919050565b6000602082019050919050565b600082825260208201905092915050565b600082825260208201905092915050565b600081905092915050565b600082825260208201905092915050565b60006121a582612216565b91506121b083612216565b9250828210156121c3576121c261233c565b5b828203905092915050565b60006121d9826121f6565b9050919050565b60008115159050919050565b6000819050919050565b600073ffffffffffffffffffffffffffffffffffffffff82169050919050565b6000819050919050565b82818337600083830152505050565b60005b8381101561224d578082015181840152602081019050612232565b8381111561225c576000848401525b50505050565b6000600282049050600182168061227a57607f821691505b6020821081141561228e5761228d61236b565b5b50919050565b61229d826123c9565b810181811067ffffffffffffffff821117156122bc576122bb61239a565b5b80604052505050565b60006122d082612216565b91507fffffffffffffffffffffffffffffffffffffffffffffffffffffffffffffffff8214156123035761230261233c565b5b600182019050919050565b600061231982612320565b9050919050565b600061232b826123da565b9050919050565b6000819050919050565b7f4e487b7100000000000000000000000000000000000000000000000000000000600052601160045260246000fd5b7f4e487b7100000000000000000000000000000000000000000000000000000000600052602260045260246000fd5b7f4e487b7100000000000000000000000000000000000000000000000000000000600052604160045260246000fd5b6000601f19601f8301169050919050565b60008160601b9050919050565b7f53656e64657220646f6573206e6f74206861766520616374696f6e206b657900600082015250565b7f4b657920616c7265616479206578697374730000000000000000000000000000600082015250565b7f53656e64657220646f6573206e6f74206861766520636c61696d207369676e6560008201527f72206b6579000000000000000000000000000000000000000000000000000000602082015250565b7f416c726561647920657865637574656400000000000000000000000000000000600082015250565b7f53656e64657220646f6573206e6f742068617665206d616e6167656d656e742060008201527f6b65790000000000000000000000000000000000000000000000000000000000602082015250565b7f4e6f2073756368206b6579000000000000000000000000000000000000000000600082015250565b612532816121ce565b811461253d57600080fd5b50565b612549816121e0565b811461255457600080fd5b50565b612560816121ec565b811461256b57600080fd5b50565b61257781612216565b811461258257600080fd5b5056fea2646970667358221220cf6ad8fcaaafd31461e09b69a4cec8622e5a46065ad4a3c5445fbeaf16916c7464736f6c63430008010033a26469706673582212202464d695df39210084eb76d24e758d0860681ca4a154cb9d6d3dfc391bf9711564736f6c63430008010033",
  "immutableReferences": {},
  "source": "// SPDX-License-Identifier: MIT\r\npragma solidity >=0.4.22 <0.9.0;\r\nimport './xClaimHolder.sol';\r\nimport './xKeyHolder.sol';\r\n\r\ncontract EthereumClaimsRegistry {\r\n\r\n    event ClaimHolderAdded(address claimHolder);\r\n\r\n    mapping(address => xClaimHolder) public claimHolder;\r\n    \r\n    function addClaimHolder() public returns (address contractAddr){\r\n        xClaimHolder holder = new xClaimHolder();\r\n        contractAddr = address(holder);\r\n        claimHolder[contractAddr] = holder;\r\n        emit ClaimHolderAdded(address(holder));\r\n        return contractAddr;\r\n    }\r\n\r\n    function addClaim (  \r\n        address holder,\r\n        uint256 _claimType,\r\n        uint256 _scheme,\r\n        address _issuer,\r\n        bytes memory _signature,\r\n        bytes memory _data,\r\n        string memory _uri\r\n        ) public returns (bytes32 claimID){\r\n\r\n            return claimHolder[holder].addClaim(_claimType,  _scheme,  _issuer, _signature, _data,  _uri);\r\n    }\r\n\r\n    function removeClaim(address holder, bytes32 _claimId)public {\r\n        claimHolder[holder].removeClaim(_claimId);\r\n    }\r\n\r\n    function getClaim(address holder, bytes32 _claimId) public view returns (\r\n            uint256 claimType,\r\n            uint256 scheme,\r\n            address issuer,\r\n            bytes memory signature,\r\n            bytes memory data,\r\n            string memory uri ){\r\n        return claimHolder[holder].getClaim(_claimId);\r\n    }\r\n    function getClaimIdsByType(address holder, uint256 _claimType) public view returns (bytes32[] memory claimIds){\r\n        return claimHolder[holder].getClaimIdsByType(_claimType);\r\n    }\r\n    function getClaimHolder(address addr) public view returns (xClaimHolder){\r\n        return claimHolder[addr];\r\n    }\r\n   \r\n\r\n}",
  "sourcePath": "D:/XAMPP/htdocs/issuerMod/contracts/EthereumClaimsRegistry.sol",
  "compiler": {
    "name": "solc",
    "version": "0.8.1+commit.df193b15.Emscripten.clang"
  },
  "schemaVersion": "3.3.4",
  "updatedAt": "2021-12-07T06:20:22.043Z",
  "networkType": "ethereum",
  "devdoc": {
    "kind": "dev",
    "methods": {},
    "version": 1
  },
  "userdoc": {
    "kind": "user",
    "methods": {},
    "version": 1
  }
}