{
  "contractName": "smartContracts",
  "abi": [
    {
      "inputs": [
        {
          "internalType": "string",
          "name": "_fName",
          "type": "string"
        },
        {
          "internalType": "uint256",
          "name": "_age",
          "type": "uint256"
        }
      ],
      "name": "setInstructor",
      "outputs": [],
      "stateMutability": "nonpayable",
      "type": "function"
    },
    {
      "inputs": [],
      "name": "getInstructor",
      "outputs": [
        {
          "internalType": "string",
          "name": "",
          "type": "string"
        },
        {
          "internalType": "uint256",
          "name": "",
          "type": "uint256"
        }
      ],
      "stateMutability": "view",
      "type": "function"
    }
  ],
  "bytecode": "0x608060405234801561001057600080fd5b506104fd806100206000396000f3fe608060405234801561001057600080fd5b50600436106100365760003560e01c806322faf03a1461003b5780633c1b81a514610057575b600080fd5b61005560048036038101906100509190610254565b610076565b005b61005f610098565b60405161006d9291906102f0565b60405180910390f35b816000908051906020019061008c929190610134565b50806001819055505050565b60606000806001548180546100ac906103de565b80601f01602080910402602001604051908101604052809291908181526020018280546100d8906103de565b80156101255780601f106100fa57610100808354040283529160200191610125565b820191906000526020600020905b81548152906001019060200180831161010857829003601f168201915b50505050509150915091509091565b828054610140906103de565b90600052602060002090601f01602090048101928261016257600085556101a9565b82601f1061017b57805160ff19168380011785556101a9565b828001600101855582156101a9579182015b828111156101a857825182559160200191906001019061018d565b5b5090506101b691906101ba565b5090565b5b808211156101d35760008160009055506001016101bb565b5090565b60006101ea6101e584610345565b610320565b90508281526020810184848401111561020257600080fd5b61020d84828561039c565b509392505050565b600082601f83011261022657600080fd5b81356102368482602086016101d7565b91505092915050565b60008135905061024e816104b0565b92915050565b6000806040838503121561026757600080fd5b600083013567ffffffffffffffff81111561028157600080fd5b61028d85828601610215565b925050602061029e8582860161023f565b9150509250929050565b60006102b382610376565b6102bd8185610381565b93506102cd8185602086016103ab565b6102d68161049f565b840191505092915050565b6102ea81610392565b82525050565b6000604082019050818103600083015261030a81856102a8565b905061031960208301846102e1565b9392505050565b600061032a61033b565b90506103368282610410565b919050565b6000604051905090565b600067ffffffffffffffff8211156103605761035f610470565b5b6103698261049f565b9050602081019050919050565b600081519050919050565b600082825260208201905092915050565b6000819050919050565b82818337600083830152505050565b60005b838110156103c95780820151818401526020810190506103ae565b838111156103d8576000848401525b50505050565b600060028204905060018216806103f657607f821691505b6020821081141561040a57610409610441565b5b50919050565b6104198261049f565b810181811067ffffffffffffffff8211171561043857610437610470565b5b80604052505050565b7f4e487b7100000000000000000000000000000000000000000000000000000000600052602260045260246000fd5b7f4e487b7100000000000000000000000000000000000000000000000000000000600052604160045260246000fd5b6000601f19601f8301169050919050565b6104b981610392565b81146104c457600080fd5b5056fea2646970667358221220198f215cace2d8389c512b43f09c3d68053863d0c1aafde310f934e1a4a6452864736f6c63430008010033",
  "immutableReferences": {},
  "source": "// SPDX-License-Identifier: MIT\r\npragma solidity >=0.4.18 <0.9.0;\r\n\r\ncontract smartContracts{\r\n    string fName;\r\n   uint age;\r\n\r\n\r\n   function setInstructor(string memory _fName, uint _age) public {\r\n       fName = _fName;\r\n       age = _age;\r\n   }\r\n   \r\n   function getInstructor() public view returns (string memory, uint) {\r\n       return (fName, age);\r\n   }\r\n}\r\n",
  "sourcePath": "D:/XAMPP/htdocs/issuerMod/contracts/smartContracts.sol",
  "compiler": {
    "name": "solc",
    "version": "0.8.1+commit.df193b15.Emscripten.clang"
  },
  "schemaVersion": "3.3.4",
  "updatedAt": "2021-09-04T08:01:44.349Z",
  "devdoc": {
    "kind": "dev",
    "methods": {},
    "version": 1
  },
  "userdoc": {
    "kind": "user",
    "methods": {},
    "version": 1
  }
}