{
  "contractName": "smartcontracts",
  "abi": [
    {
      "anonymous": false,
      "inputs": [
        {
          "indexed": false,
          "internalType": "string",
          "name": "_fName",
          "type": "string"
        },
        {
          "indexed": false,
          "internalType": "uint256",
          "name": "_age",
          "type": "uint256"
        }
      ],
      "name": "getInstructor",
      "type": "event"
    },
    {
      "inputs": [
        {
          "internalType": "string",
          "name": "_fName",
          "type": "string"
        },
        {
          "internalType": "uint256",
          "name": "_age",
          "type": "uint256"
        }
      ],
      "name": "setInstructor",
      "outputs": [],
      "stateMutability": "nonpayable",
      "type": "function"
    }
  ],
  "bytecode": "0x608060405234801561001057600080fd5b50610491806100206000396000f3fe608060405234801561001057600080fd5b506004361061002b5760003560e01c806322faf03a14610030575b600080fd5b61004a600480360381019061004591906101ca565b61004c565b005b81600090805190602001906100629291906100aa565b50806001819055507fce1fcd145d2c17b32a476c52d4cbc1ddb406e66a0c19bce7bb30f44ebedf0839600060015460405161009e9291906102ad565b60405180910390a15050565b8280546100b690610372565b90600052602060002090601f0160209004810192826100d8576000855561011f565b82601f106100f157805160ff191683800117855561011f565b8280016001018555821561011f579182015b8281111561011e578251825591602001919060010190610103565b5b50905061012c9190610130565b5090565b5b80821115610149576000816000905550600101610131565b5090565b600061016061015b84610302565b6102dd565b90508281526020810184848401111561017857600080fd5b610183848285610363565b509392505050565b600082601f83011261019c57600080fd5b81356101ac84826020860161014d565b91505092915050565b6000813590506101c481610444565b92915050565b600080604083850312156101dd57600080fd5b600083013567ffffffffffffffff8111156101f757600080fd5b6102038582860161018b565b9250506020610214858286016101b5565b9150509250929050565b6000815461022b81610372565b6102358186610348565b94506001821660008114610250576001811461026257610295565b60ff1983168652602086019350610295565b61026b85610333565b60005b8381101561028d5781548189015260018201915060208101905061026e565b808801955050505b50505092915050565b6102a781610359565b82525050565b600060408201905081810360008301526102c7818561021e565b90506102d6602083018461029e565b9392505050565b60006102e76102f8565b90506102f382826103a4565b919050565b6000604051905090565b600067ffffffffffffffff82111561031d5761031c610404565b5b61032682610433565b9050602081019050919050565b60008190508160005260206000209050919050565b600082825260208201905092915050565b6000819050919050565b82818337600083830152505050565b6000600282049050600182168061038a57607f821691505b6020821081141561039e5761039d6103d5565b5b50919050565b6103ad82610433565b810181811067ffffffffffffffff821117156103cc576103cb610404565b5b80604052505050565b7f4e487b7100000000000000000000000000000000000000000000000000000000600052602260045260246000fd5b7f4e487b7100000000000000000000000000000000000000000000000000000000600052604160045260246000fd5b6000601f19601f8301169050919050565b61044d81610359565b811461045857600080fd5b5056fea2646970667358221220709cc4ea2a0392999a769ec1868c58c652c0bcdadb7e221ec27f32564c8d99e264736f6c63430008010033",
  "immutableReferences": {},
  "source": "// SPDX-License-Identifier: MIT\r\npragma solidity >=0.4.22 <0.9.0;\r\n\r\ncontract smartcontracts {\r\n    \r\n   string fName;\r\n   uint age;\r\n   event getInstructor(string _fName, uint _age);\r\n\r\n   function setInstructor(string memory _fName, uint _age) public {\r\n       fName = _fName;\r\n       age = _age;\r\n       emit getInstructor(fName,age);\r\n   }\r\n   \r\n  // function getInstructor() view public returns (string memory, uint) {\r\n  //     return (fName, age);\r\n //  }\r\n   \r\n}",
  "sourcePath": "D:/XAMPP/htdocs/issuerMod/contracts/smartcontracts.sol",
  "compiler": {
    "name": "solc",
    "version": "0.8.1+commit.df193b15.Emscripten.clang"
  },
  "schemaVersion": "3.3.4",
  "updatedAt": "2021-12-21T13:08:21.321Z",
  "networkType": "ethereum",
  "devdoc": {
    "kind": "dev",
    "methods": {},
    "version": 1
  },
  "userdoc": {
    "kind": "user",
    "methods": {},
    "version": 1
  }
}