{
  "contractName": "xClaimVerifier",
  "abi": [
    {
      "inputs": [
        {
          "internalType": "address",
          "name": "_trustedClaimHolder",
          "type": "address"
        }
      ],
      "stateMutability": "nonpayable",
      "type": "constructor"
    },
    {
      "anonymous": false,
      "inputs": [
        {
          "indexed": false,
          "internalType": "contract xClaimHolder",
          "name": "_identity",
          "type": "address"
        },
        {
          "indexed": false,
          "internalType": "uint256",
          "name": "claimType",
          "type": "uint256"
        }
      ],
      "name": "ClaimInvalid",
      "type": "event"
    },
    {
      "anonymous": false,
      "inputs": [
        {
          "indexed": false,
          "internalType": "contract xClaimHolder",
          "name": "_identity",
          "type": "address"
        },
        {
          "indexed": false,
          "internalType": "uint256",
          "name": "claimType",
          "type": "uint256"
        }
      ],
      "name": "ClaimValid",
      "type": "event"
    },
    {
      "inputs": [],
      "name": "trustedClaimHolder",
      "outputs": [
        {
          "internalType": "contract xClaimHolder",
          "name": "",
          "type": "address"
        }
      ],
      "stateMutability": "view",
      "type": "function"
    },
    {
      "inputs": [
        {
          "internalType": "contract xClaimHolder",
          "name": "_identity",
          "type": "address"
        },
        {
          "internalType": "uint256",
          "name": "claimType",
          "type": "uint256"
        }
      ],
      "name": "checkClaim",
      "outputs": [
        {
          "internalType": "bool",
          "name": "claimValid",
          "type": "bool"
        }
      ],
      "stateMutability": "nonpayable",
      "type": "function"
    },
    {
      "inputs": [
        {
          "internalType": "contract xClaimHolder",
          "name": "_identity",
          "type": "address"
        },
        {
          "internalType": "uint256",
          "name": "claimType",
          "type": "uint256"
        }
      ],
      "name": "claimIsValid",
      "outputs": [
        {
          "internalType": "bool",
          "name": "claimValid",
          "type": "bool"
        }
      ],
      "stateMutability": "view",
      "type": "function"
    },
    {
      "inputs": [
        {
          "internalType": "bytes",
          "name": "sig",
          "type": "bytes"
        },
        {
          "internalType": "bytes32",
          "name": "dataHash",
          "type": "bytes32"
        }
      ],
      "name": "getRecoveredAddress",
      "outputs": [
        {
          "internalType": "address",
          "name": "addr",
          "type": "address"
        }
      ],
      "stateMutability": "pure",
      "type": "function"
    }
  ],
  "bytecode": "0x608060405234801561001057600080fd5b50604051610f23380380610f238339818101604052810190610032919061008d565b806000806101000a81548173ffffffffffffffffffffffffffffffffffffffff021916908373ffffffffffffffffffffffffffffffffffffffff160217905550506100ff565b600081519050610087816100e8565b92915050565b60006020828403121561009f57600080fd5b60006100ad84828501610078565b91505092915050565b60006100c1826100c8565b9050919050565b600073ffffffffffffffffffffffffffffffffffffffff82169050919050565b6100f1816100b6565b81146100fc57600080fd5b50565b610e158061010e6000396000f3fe608060405234801561001057600080fd5b506004361061004c5760003560e01c80630382ad261461005157806336938354146100815780639fecd5541461009f578063c3b129e3146100cf575b600080fd5b61006b600480360381019061006691906106c7565b6100ff565b60405161007891906109ae565b60405180910390f35b610089610196565b6040516100969190610a52565b60405180910390f35b6100b960048036038101906100b491906106c7565b6101ba565b6040516100c691906109ae565b60405180910390f35b6100e960048036038101906100e49190610673565b6103e4565b6040516100f69190610993565b60405180910390f35b600061010b83836101ba565b15610152577f5637aa6b77cde2de563765b75a65099af73d3bf22cb9d089a64a01777823208e8383604051610141929190610a6d565b60405180910390a160019050610190565b7fc1e461cfcaa9ff5efbb053582a325fbfebec1d94ac7e9d9958ee7f74c2b6b5588383604051610183929190610a6d565b60405180910390a1600090505b92915050565b60008054906101000a900473ffffffffffffffffffffffffffffffffffffffff1681565b600080600080606080600088886040516020016101d8929190610908565b6040516020818303038152906040528051906020012090508873ffffffffffffffffffffffffffffffffffffffff1663c9100bcb826040518263ffffffff1660e01b815260040161022991906109c9565b60006040518083038186803b15801561024157600080fd5b505afa158015610255573d6000803e3d6000fd5b505050506040513d6000823e3d601f19601f8201168201806040525081019061027e9190610703565b50809650819750829850839950849a50505050505060008989846040516020016102aa93929190610934565b6040516020818303038152906040528051906020012090506000816040516020016102d5919061096d565b60405160208183030381529060405280519060200120905060006102f986836103e4565b905060008160405160200161030e91906108ed565b60405160208183030381529060405280519060200120905060008054906101000a900473ffffffffffffffffffffffffffffffffffffffff1673ffffffffffffffffffffffffffffffffffffffff1663d202158d8260036040518363ffffffff1660e01b81526004016103829291906109e4565b60206040518083038186803b15801561039a57600080fd5b505afa1580156103ae573d6000803e3d6000fd5b505050506040513d601f19601f820116820180604052508101906103d2919061064a565b9a505050505050505050505092915050565b60008060008060418651146103ff576000935050505061048e565b6020860151925060408601519150606086015160001a9050601b8160ff16101561043357601b816104309190610b3e565b90505b6000600186838686604051600081526020016040526040516104589493929190610a0d565b6020604051602081039080840390855afa15801561047a573d6000803e3d6000fd5b505050602060405103519050809450505050505b92915050565b60006104a76104a284610abb565b610a96565b9050828152602081018484840111156104bf57600080fd5b6104ca848285610c1c565b509392505050565b60006104e56104e084610abb565b610a96565b9050828152602081018484840111156104fd57600080fd5b610508848285610c2b565b509392505050565b600061052361051e84610aec565b610a96565b90508281526020810184848401111561053b57600080fd5b610546848285610c2b565b509392505050565b60008151905061055d81610d6c565b92915050565b60008151905061057281610d83565b92915050565b60008135905061058781610d9a565b92915050565b600082601f83011261059e57600080fd5b81356105ae848260208601610494565b91505092915050565b600082601f8301126105c857600080fd5b81516105d88482602086016104d2565b91505092915050565b6000813590506105f081610db1565b92915050565b600082601f83011261060757600080fd5b8151610617848260208601610510565b91505092915050565b60008135905061062f81610dc8565b92915050565b60008151905061064481610dc8565b92915050565b60006020828403121561065c57600080fd5b600061066a84828501610563565b91505092915050565b6000806040838503121561068657600080fd5b600083013567ffffffffffffffff8111156106a057600080fd5b6106ac8582860161058d565b92505060206106bd85828601610578565b9150509250929050565b600080604083850312156106da57600080fd5b60006106e8858286016105e1565b92505060206106f985828601610620565b9150509250929050565b60008060008060008060c0878903121561071c57600080fd5b600061072a89828a01610635565b965050602061073b89828a01610635565b955050604061074c89828a0161054e565b945050606087015167ffffffffffffffff81111561076957600080fd5b61077589828a016105b7565b935050608087015167ffffffffffffffff81111561079257600080fd5b61079e89828a016105b7565b92505060a087015167ffffffffffffffff8111156107bb57600080fd5b6107c789828a016105f6565b9150509295509295509295565b6107dd81610b75565b82525050565b6107f46107ef82610b75565b610c8f565b82525050565b61080381610b87565b82525050565b61081281610b93565b82525050565b61082961082482610b93565b610ca1565b82525050565b600061083a82610b1d565b6108448185610b28565b9350610854818560208601610c2b565b80840191505092915050565b61086981610be6565b82525050565b61088061087b82610be6565b610c8f565b82525050565b61088f81610c0a565b82525050565b60006108a2601c83610b33565b91506108ad82610d43565b601c82019050919050565b6108c181610bcf565b82525050565b6108d86108d382610bcf565b610cbd565b82525050565b6108e781610bd9565b82525050565b60006108f982846107e3565b60148201915081905092915050565b6000610914828561086f565b60148201915061092482846108c7565b6020820191508190509392505050565b6000610940828661086f565b60148201915061095082856108c7565b602082019150610960828461082f565b9150819050949350505050565b600061097882610895565b91506109848284610818565b60208201915081905092915050565b60006020820190506109a860008301846107d4565b92915050565b60006020820190506109c360008301846107fa565b92915050565b60006020820190506109de6000830184610809565b92915050565b60006040820190506109f96000830185610809565b610a066020830184610886565b9392505050565b6000608082019050610a226000830187610809565b610a2f60208301866108de565b610a3c6040830185610809565b610a496060830184610809565b95945050505050565b6000602082019050610a676000830184610860565b92915050565b6000604082019050610a826000830185610860565b610a8f60208301846108b8565b9392505050565b6000610aa0610ab1565b9050610aac8282610c5e565b919050565b6000604051905090565b600067ffffffffffffffff821115610ad657610ad5610cf6565b5b610adf82610d25565b9050602081019050919050565b600067ffffffffffffffff821115610b0757610b06610cf6565b5b610b1082610d25565b9050602081019050919050565b600081519050919050565b600081905092915050565b600081905092915050565b6000610b4982610bd9565b9150610b5483610bd9565b92508260ff03821115610b6a57610b69610cc7565b5b828201905092915050565b6000610b8082610baf565b9050919050565b60008115159050919050565b6000819050919050565b6000610ba882610b75565b9050919050565b600073ffffffffffffffffffffffffffffffffffffffff82169050919050565b6000819050919050565b600060ff82169050919050565b6000610bf182610bf8565b9050919050565b6000610c0382610baf565b9050919050565b6000610c1582610bcf565b9050919050565b82818337600083830152505050565b60005b83811015610c49578082015181840152602081019050610c2e565b83811115610c58576000848401525b50505050565b610c6782610d25565b810181811067ffffffffffffffff82111715610c8657610c85610cf6565b5b80604052505050565b6000610c9a82610cab565b9050919050565b6000819050919050565b6000610cb682610d36565b9050919050565b6000819050919050565b7f4e487b7100000000000000000000000000000000000000000000000000000000600052601160045260246000fd5b7f4e487b7100000000000000000000000000000000000000000000000000000000600052604160045260246000fd5b6000601f19601f8301169050919050565b60008160601b9050919050565b7f19457468657265756d205369676e6564204d6573736167653a0a333200000000600082015250565b610d7581610b75565b8114610d8057600080fd5b50565b610d8c81610b87565b8114610d9757600080fd5b50565b610da381610b93565b8114610dae57600080fd5b50565b610dba81610b9d565b8114610dc557600080fd5b50565b610dd181610bcf565b8114610ddc57600080fd5b5056fea26469706673582212200722fa714cff7283c0c4d04c19270e27ef8808dd12b2365bf289e1179febbfb764736f6c63430008010033",
  "immutableReferences": {},
  "source": "pragma solidity >=0.7.0 <0.9.0;\r\n\r\nimport './xClaimHolder.sol';\r\n\r\n// **Warning!** This file is a protoype version of our work around ERC 725.\r\n// This file is now out of date and **should not be used**.\r\n// Our current identity contracts are here:\r\n// https://github.com/OriginProtocol/origin/tree/master/origin-contracts/contracts/identity\r\n\r\ncontract xClaimVerifier {\r\n\r\n  event ClaimValid(xClaimHolder _identity, uint256 claimType);\r\n  event ClaimInvalid(xClaimHolder _identity, uint256 claimType);\r\n\r\n  xClaimHolder public trustedClaimHolder;\r\n\r\n  constructor (address _trustedClaimHolder) {\r\n    trustedClaimHolder = xClaimHolder(_trustedClaimHolder);\r\n  }\r\n\r\n  function checkClaim(xClaimHolder _identity, uint256 claimType)\r\n    public\r\n    returns (bool claimValid)\r\n  {\r\n    if (claimIsValid(_identity, claimType)) {\r\n      emit ClaimValid(_identity, claimType);\r\n      return true;\r\n    } else {\r\n      emit ClaimInvalid(_identity, claimType);\r\n      return false;\r\n    }\r\n  }\r\n\r\n  function claimIsValid(xClaimHolder _identity, uint256 claimType)\r\n    public view\r\n\r\n    returns (bool claimValid)\r\n  {\r\n    uint256 foundClaimType;\r\n    uint256 scheme;\r\n    address issuer;\r\n    bytes memory sig;\r\n    bytes memory data;\r\n\r\n    // Construct claimId (identifier + claim type)\r\n    bytes32 claimId = keccak256(abi.encodePacked(_identity, claimType));\r\n\r\n    // Fetch claim from user\r\n    ( foundClaimType, scheme, issuer, sig, data, ) = _identity.getClaim(claimId);\r\n\r\n    bytes32 dataHash = keccak256(abi.encodePacked(_identity, claimType, data));\r\n    bytes32 prefixedHash = keccak256(abi.encodePacked(\"\\x19Ethereum Signed Message:\\n32\", dataHash));\r\n\r\n    // Recover address of data signer\r\n    address recovered = getRecoveredAddress(sig, prefixedHash);\r\n\r\n    // Take hash of recovered address\r\n    bytes32 hashedAddr = keccak256(abi.encodePacked(recovered));\r\n\r\n    // Does the trusted identifier have they key which signed the user's claim?\r\n    return trustedClaimHolder.keyHasPurpose(hashedAddr, 3);\r\n  }\r\n\r\n  function getRecoveredAddress(bytes memory sig, bytes32 dataHash)\r\n      pure\r\n    public\r\n      returns (address addr)\r\n  {\r\n      bytes32 ra;\r\n      bytes32 sa;\r\n      uint8 va;\r\n\r\n      // Check the signature length\r\n      if (sig.length != 65) {\r\n        return address(0);\r\n      }\r\n\r\n      // Divide the signature in r, s and v variables\r\n      assembly {\r\n        ra := mload(add(sig, 32))\r\n        sa := mload(add(sig, 64))\r\n        va := byte(0, mload(add(sig, 96)))\r\n      }\r\n\r\n      if (va < 27) {\r\n        va += 27;\r\n      }\r\n\r\n      address recoveredAddress = ecrecover(dataHash, va, ra, sa);\r\n\r\n      return (recoveredAddress);\r\n  }\r\n\r\n}",
  "sourcePath": "D:/XAMPP/htdocs/issuerMod/contracts/xClaimVerifier.sol",
  "compiler": {
    "name": "solc",
    "version": "0.8.1+commit.df193b15.Emscripten.clang"
  },
  "schemaVersion": "3.3.4",
  "updatedAt": "2021-12-18T13:57:16.964Z",
  "devdoc": {
    "kind": "dev",
    "methods": {},
    "version": 1
  },
  "userdoc": {
    "kind": "user",
    "methods": {},
    "version": 1
  }
}