{
  "contractName": "xClaimHolder",
  "abi": [
    {
      "anonymous": false,
      "inputs": [
        {
          "indexed": true,
          "internalType": "uint256",
          "name": "executionId",
          "type": "uint256"
        },
        {
          "indexed": false,
          "internalType": "bool",
          "name": "approved",
          "type": "bool"
        }
      ],
      "name": "Approved",
      "type": "event"
    },
    {
      "anonymous": false,
      "inputs": [
        {
          "indexed": true,
          "internalType": "bytes32",
          "name": "claimId",
          "type": "bytes32"
        },
        {
          "indexed": true,
          "internalType": "uint256",
          "name": "claimType",
          "type": "uint256"
        },
        {
          "indexed": true,
          "internalType": "address",
          "name": "issuer",
          "type": "address"
        },
        {
          "indexed": false,
          "internalType": "uint256",
          "name": "signatureType",
          "type": "uint256"
        },
        {
          "indexed": false,
          "internalType": "bytes32",
          "name": "signature",
          "type": "bytes32"
        },
        {
          "indexed": false,
          "internalType": "bytes",
          "name": "claim",
          "type": "bytes"
        },
        {
          "indexed": false,
          "internalType": "string",
          "name": "uri",
          "type": "string"
        }
      ],
      "name": "ClaimAdded",
      "type": "event"
    },
    {
      "anonymous": false,
      "inputs": [
        {
          "indexed": true,
          "internalType": "bytes32",
          "name": "claimId",
          "type": "bytes32"
        },
        {
          "indexed": true,
          "internalType": "uint256",
          "name": "claimType",
          "type": "uint256"
        },
        {
          "indexed": false,
          "internalType": "uint256",
          "name": "scheme",
          "type": "uint256"
        },
        {
          "indexed": true,
          "internalType": "address",
          "name": "issuer",
          "type": "address"
        },
        {
          "indexed": false,
          "internalType": "bytes",
          "name": "signature",
          "type": "bytes"
        },
        {
          "indexed": false,
          "internalType": "bytes",
          "name": "data",
          "type": "bytes"
        },
        {
          "indexed": false,
          "internalType": "string",
          "name": "uri",
          "type": "string"
        }
      ],
      "name": "ClaimAdded",
      "type": "event"
    },
    {
      "anonymous": false,
      "inputs": [
        {
          "indexed": true,
          "internalType": "bytes32",
          "name": "claimId",
          "type": "bytes32"
        },
        {
          "indexed": true,
          "internalType": "uint256",
          "name": "claimType",
          "type": "uint256"
        },
        {
          "indexed": false,
          "internalType": "uint256",
          "name": "scheme",
          "type": "uint256"
        },
        {
          "indexed": true,
          "internalType": "address",
          "name": "issuer",
          "type": "address"
        },
        {
          "indexed": false,
          "internalType": "bytes",
          "name": "signature",
          "type": "bytes"
        },
        {
          "indexed": false,
          "internalType": "bytes",
          "name": "data",
          "type": "bytes"
        },
        {
          "indexed": false,
          "internalType": "string",
          "name": "uri",
          "type": "string"
        }
      ],
      "name": "ClaimChanged",
      "type": "event"
    },
    {
      "anonymous": false,
      "inputs": [
        {
          "indexed": true,
          "internalType": "bytes32",
          "name": "claimId",
          "type": "bytes32"
        },
        {
          "indexed": true,
          "internalType": "uint256",
          "name": "claimType",
          "type": "uint256"
        },
        {
          "indexed": false,
          "internalType": "uint256",
          "name": "scheme",
          "type": "uint256"
        },
        {
          "indexed": true,
          "internalType": "address",
          "name": "issuer",
          "type": "address"
        },
        {
          "indexed": false,
          "internalType": "bytes",
          "name": "signature",
          "type": "bytes"
        },
        {
          "indexed": false,
          "internalType": "bytes",
          "name": "data",
          "type": "bytes"
        },
        {
          "indexed": false,
          "internalType": "string",
          "name": "uri",
          "type": "string"
        }
      ],
      "name": "ClaimRemoved",
      "type": "event"
    },
    {
      "anonymous": false,
      "inputs": [
        {
          "indexed": true,
          "internalType": "uint256",
          "name": "claimRequestId",
          "type": "uint256"
        },
        {
          "indexed": true,
          "internalType": "uint256",
          "name": "claimType",
          "type": "uint256"
        },
        {
          "indexed": false,
          "internalType": "uint256",
          "name": "scheme",
          "type": "uint256"
        },
        {
          "indexed": true,
          "internalType": "address",
          "name": "issuer",
          "type": "address"
        },
        {
          "indexed": false,
          "internalType": "bytes",
          "name": "signature",
          "type": "bytes"
        },
        {
          "indexed": false,
          "internalType": "bytes",
          "name": "data",
          "type": "bytes"
        },
        {
          "indexed": false,
          "internalType": "string",
          "name": "uri",
          "type": "string"
        }
      ],
      "name": "ClaimRequested",
      "type": "event"
    },
    {
      "anonymous": false,
      "inputs": [
        {
          "indexed": true,
          "internalType": "uint256",
          "name": "executionId",
          "type": "uint256"
        },
        {
          "indexed": true,
          "internalType": "address",
          "name": "to",
          "type": "address"
        },
        {
          "indexed": true,
          "internalType": "uint256",
          "name": "value",
          "type": "uint256"
        },
        {
          "indexed": false,
          "internalType": "bytes",
          "name": "data",
          "type": "bytes"
        }
      ],
      "name": "Executed",
      "type": "event"
    },
    {
      "anonymous": false,
      "inputs": [
        {
          "indexed": true,
          "internalType": "uint256",
          "name": "executionId",
          "type": "uint256"
        },
        {
          "indexed": true,
          "internalType": "address",
          "name": "to",
          "type": "address"
        },
        {
          "indexed": true,
          "internalType": "uint256",
          "name": "value",
          "type": "uint256"
        },
        {
          "indexed": false,
          "internalType": "bytes",
          "name": "data",
          "type": "bytes"
        }
      ],
      "name": "ExecutionFailed",
      "type": "event"
    },
    {
      "anonymous": false,
      "inputs": [
        {
          "indexed": true,
          "internalType": "uint256",
          "name": "executionId",
          "type": "uint256"
        },
        {
          "indexed": true,
          "internalType": "address",
          "name": "to",
          "type": "address"
        },
        {
          "indexed": true,
          "internalType": "uint256",
          "name": "value",
          "type": "uint256"
        },
        {
          "indexed": false,
          "internalType": "bytes",
          "name": "data",
          "type": "bytes"
        }
      ],
      "name": "ExecutionRequested",
      "type": "event"
    },
    {
      "anonymous": false,
      "inputs": [
        {
          "indexed": true,
          "internalType": "bytes32",
          "name": "key",
          "type": "bytes32"
        },
        {
          "indexed": true,
          "internalType": "uint256",
          "name": "purpose",
          "type": "uint256"
        },
        {
          "indexed": true,
          "internalType": "uint256",
          "name": "keyType",
          "type": "uint256"
        }
      ],
      "name": "KeyAdded",
      "type": "event"
    },
    {
      "anonymous": false,
      "inputs": [
        {
          "indexed": true,
          "internalType": "bytes32",
          "name": "key",
          "type": "bytes32"
        },
        {
          "indexed": true,
          "internalType": "uint256",
          "name": "purpose",
          "type": "uint256"
        },
        {
          "indexed": true,
          "internalType": "uint256",
          "name": "keyType",
          "type": "uint256"
        }
      ],
      "name": "KeyRemoved",
      "type": "event"
    },
    {
      "inputs": [
        {
          "internalType": "bytes32",
          "name": "_key",
          "type": "bytes32"
        },
        {
          "internalType": "uint256",
          "name": "_purpose",
          "type": "uint256"
        },
        {
          "internalType": "uint256",
          "name": "_type",
          "type": "uint256"
        }
      ],
      "name": "addKey",
      "outputs": [
        {
          "internalType": "bool",
          "name": "success",
          "type": "bool"
        }
      ],
      "stateMutability": "nonpayable",
      "type": "function"
    },
    {
      "inputs": [
        {
          "internalType": "uint256",
          "name": "_id",
          "type": "uint256"
        },
        {
          "internalType": "bool",
          "name": "_approve",
          "type": "bool"
        }
      ],
      "name": "approve",
      "outputs": [
        {
          "internalType": "bool",
          "name": "success",
          "type": "bool"
        }
      ],
      "stateMutability": "nonpayable",
      "type": "function"
    },
    {
      "inputs": [
        {
          "internalType": "address",
          "name": "_to",
          "type": "address"
        },
        {
          "internalType": "uint256",
          "name": "_value",
          "type": "uint256"
        },
        {
          "internalType": "bytes",
          "name": "_data",
          "type": "bytes"
        }
      ],
      "name": "execute",
      "outputs": [
        {
          "internalType": "uint256",
          "name": "executionId",
          "type": "uint256"
        }
      ],
      "stateMutability": "nonpayable",
      "type": "function"
    },
    {
      "inputs": [
        {
          "internalType": "bytes32",
          "name": "_key",
          "type": "bytes32"
        }
      ],
      "name": "getKey",
      "outputs": [
        {
          "internalType": "uint256",
          "name": "purpose",
          "type": "uint256"
        },
        {
          "internalType": "uint256",
          "name": "keyType",
          "type": "uint256"
        },
        {
          "internalType": "bytes32",
          "name": "key",
          "type": "bytes32"
        }
      ],
      "stateMutability": "view",
      "type": "function",
      "constant": true
    },
    {
      "inputs": [
        {
          "internalType": "bytes32",
          "name": "_key",
          "type": "bytes32"
        }
      ],
      "name": "getKeyPurpose",
      "outputs": [
        {
          "internalType": "uint256",
          "name": "purpose",
          "type": "uint256"
        }
      ],
      "stateMutability": "view",
      "type": "function",
      "constant": true
    },
    {
      "inputs": [
        {
          "internalType": "uint256",
          "name": "_purpose",
          "type": "uint256"
        }
      ],
      "name": "getKeysByPurpose",
      "outputs": [
        {
          "internalType": "bytes32[]",
          "name": "_keys",
          "type": "bytes32[]"
        }
      ],
      "stateMutability": "view",
      "type": "function",
      "constant": true
    },
    {
      "inputs": [
        {
          "internalType": "bytes32",
          "name": "_key",
          "type": "bytes32"
        },
        {
          "internalType": "uint256",
          "name": "_purpose",
          "type": "uint256"
        }
      ],
      "name": "keyHasPurpose",
      "outputs": [
        {
          "internalType": "bool",
          "name": "result",
          "type": "bool"
        }
      ],
      "stateMutability": "view",
      "type": "function",
      "constant": true
    },
    {
      "inputs": [
        {
          "internalType": "bytes32",
          "name": "_key",
          "type": "bytes32"
        }
      ],
      "name": "removeKey",
      "outputs": [
        {
          "internalType": "bool",
          "name": "success",
          "type": "bool"
        }
      ],
      "stateMutability": "nonpayable",
      "type": "function"
    },
    {
      "inputs": [
        {
          "internalType": "uint256",
          "name": "_claimType",
          "type": "uint256"
        },
        {
          "internalType": "uint256",
          "name": "_scheme",
          "type": "uint256"
        },
        {
          "internalType": "address",
          "name": "_issuer",
          "type": "address"
        },
        {
          "internalType": "bytes",
          "name": "_signature",
          "type": "bytes"
        },
        {
          "internalType": "bytes",
          "name": "_data",
          "type": "bytes"
        },
        {
          "internalType": "string",
          "name": "_uri",
          "type": "string"
        }
      ],
      "name": "addClaim",
      "outputs": [
        {
          "internalType": "bytes32",
          "name": "claimRequestId",
          "type": "bytes32"
        }
      ],
      "stateMutability": "nonpayable",
      "type": "function"
    },
    {
      "inputs": [
        {
          "internalType": "bytes32",
          "name": "_claimId",
          "type": "bytes32"
        }
      ],
      "name": "removeClaim",
      "outputs": [
        {
          "internalType": "bool",
          "name": "success",
          "type": "bool"
        }
      ],
      "stateMutability": "nonpayable",
      "type": "function"
    },
    {
      "inputs": [
        {
          "internalType": "bytes32",
          "name": "_claimId",
          "type": "bytes32"
        }
      ],
      "name": "getClaim",
      "outputs": [
        {
          "internalType": "uint256",
          "name": "claimType",
          "type": "uint256"
        },
        {
          "internalType": "uint256",
          "name": "scheme",
          "type": "uint256"
        },
        {
          "internalType": "address",
          "name": "issuer",
          "type": "address"
        },
        {
          "internalType": "bytes",
          "name": "signature",
          "type": "bytes"
        },
        {
          "internalType": "bytes",
          "name": "data",
          "type": "bytes"
        },
        {
          "internalType": "string",
          "name": "uri",
          "type": "string"
        }
      ],
      "stateMutability": "view",
      "type": "function",
      "constant": true
    },
    {
      "inputs": [
        {
          "internalType": "uint256",
          "name": "_claimType",
          "type": "uint256"
        }
      ],
      "name": "getClaimIdsByType",
      "outputs": [
        {
          "internalType": "bytes32[]",
          "name": "claimIds",
          "type": "bytes32[]"
        }
      ],
      "stateMutability": "view",
      "type": "function",
      "constant": true
    },
    {
      "inputs": [
        {
          "internalType": "address payable",
          "name": "addr",
          "type": "address"
        }
      ],
      "name": "destroy",
      "outputs": [],
      "stateMutability": "nonpayable",
      "type": "function"
    }
  ],
  "bytecode": "0x60806040523480156200001157600080fd5b5060003360405160200162000027919062000132565b6040516020818303038152906040528051906020012090508060016000838152602001908152602001600020600201819055506001806000838152602001908152602001600020600001819055506001806000838152602001908152602001600020600101819055506002600060018152602001908152602001600020819080600181540180825580915050600190039060005260206000200160009091909190915055600180600083815260200190815260200160002060000154827f480000bb1edad8ca1470381cc334b1917fbd51c6531f3a623ea8e0ec7e38a6e960405160405180910390a450620001b8565b6200012c62000126826200014f565b62000183565b82525050565b600062000140828462000117565b60148201915081905092915050565b60006200015c8262000163565b9050919050565b600073ffffffffffffffffffffffffffffffffffffffff82169050919050565b6000620001908262000197565b9050919050565b6000620001a482620001ab565b9050919050565b60008160601b9050919050565b61267180620001c86000396000f3fe608060405234801561001057600080fd5b50600436106100ce5760003560e01c8063747442d31161008c578063b1a34e0d11610066578063b1a34e0d14610271578063b61d27f6146102a1578063c9100bcb146102d1578063d202158d14610306576100ce565b8063747442d3146101e1578063862642f5146102115780639010f72614610241576100ce565b8062f55d9d146100d3578063032c1a8a146100ef57806312aaac701461011f5780631d38124014610151578063262b54f5146101815780634eee424a146101b1575b600080fd5b6100ed60048036038101906100e89190611798565b610336565b005b61010960048036038101906101049190611828565b61034f565b6040516101169190611f7e565b60405180910390f35b61013960048036038101906101349190611828565b61036f565b604051610148939291906120c3565b60405180910390f35b61016b6004803603810190610166919061188d565b6103c6565b6040516101789190611e44565b60405180910390f35b61019b600480360381019061019691906118dc565b61058a565b6040516101a89190611e22565b60405180910390f35b6101cb60048036038101906101c69190611828565b6105f5565b6040516101d89190611e44565b60405180910390f35b6101fb60048036038101906101f69190611905565b610818565b6040516102089190611e44565b60405180910390f35b61022b60048036038101906102269190611828565b610ba1565b6040516102389190611e44565b60405180910390f35b61025b600480360381019061025691906118dc565b610ca3565b6040516102689190611e22565b60405180910390f35b61028b60048036038101906102869190611941565b610d0e565b6040516102989190611e5f565b60405180910390f35b6102bb60048036038101906102b691906117c1565b610ff4565b6040516102c89190611f7e565b60405180910390f35b6102eb60048036038101906102e69190611828565b6111f7565b6040516102fd9695949392919061204d565b60405180910390f35b610320600480360381019061031b9190611851565b611461565b60405161032d9190611e44565b60405180910390f35b8073ffffffffffffffffffffffffffffffffffffffff16ff5b600060016000838152602001908152602001600020600001549050919050565b60008060006001600085815260200190815260200160002060000154600160008681526020019081526020016000206001015460016000878152602001908152602001600020600201549250925092509193909250565b60008360016000868152602001908152602001600020600201541415610421576040517f08c379a000000000000000000000000000000000000000000000000000000000815260040161041890611ede565b60405180910390fd5b3073ffffffffffffffffffffffffffffffffffffffff163373ffffffffffffffffffffffffffffffffffffffff16146104c557610485336040516020016104689190611dc4565b604051602081830303815290604052805190602001206001611461565b6104c4576040517f08c379a00000000000000000000000000000000000000000000000000000000081526004016104bb90611f3e565b60405180910390fd5b5b836001600086815260200190815260200160002060020181905550826001600086815260200190815260200160002060000181905550816001600086815260200190815260200160002060010181905550600260008481526020019081526020016000208490806001815401808255809150506001900390600052602060002001600090919091909150558183857f480000bb1edad8ca1470381cc334b1917fbd51c6531f3a623ea8e0ec7e38a6e960405160405180910390a4600190509392505050565b6060600560008381526020019081526020016000208054806020026020016040519081016040528092919081815260200182805480156105e957602002820191906000526020600020905b8154815260200190600101908083116105d5575b50505050509050919050565b60003073ffffffffffffffffffffffffffffffffffffffff163373ffffffffffffffffffffffffffffffffffffffff161461069b5761065b3360405160200161063e9190611dc4565b604051602081830303815290604052805190602001206001611461565b61069a576040517f08c379a000000000000000000000000000000000000000000000000000000000815260040161069190611f3e565b60405180910390fd5b5b6004600083815260200190815260200160002060020160009054906101000a900473ffffffffffffffffffffffffffffffffffffffff1673ffffffffffffffffffffffffffffffffffffffff166004600084815260200190815260200160002060000154837f3cf57863a89432c61c4a27073c6ee39e8a764bff5a05aebfbcdcdc80b2e6130a60046000878152602001908152602001600020600101546004600088815260200190815260200160002060030160046000898152602001908152602001600020600401600460008a815260200190815260200160002060050160405161078a9493929190611ff3565b60405180910390a46004600083815260200190815260200160002060008082016000905560018201600090556002820160006101000a81549073ffffffffffffffffffffffffffffffffffffffff02191690556003820160006107ed91906114b6565b6004820160006107fd91906114b6565b60058201600061080d91906114f6565b505060019050919050565b600061084b3360405160200161082e9190611dc4565b604051602081830303815290604052805190602001206002611461565b61088a576040517f08c379a000000000000000000000000000000000000000000000000000000000815260040161088190611ebe565b60405180910390fd5b827fb3932da477fe5d6c8ff2eafef050c0f3a1af18fc07121001482600f36f3715d8836040516108ba9190611e44565b60405180910390a26060600115158315151415610b665760016003600086815260200190815260200160002060030160006101000a81548160ff0219169083151502179055506003600085815260200190815260200160002060000160009054906101000a900473ffffffffffffffffffffffffffffffffffffffff1673ffffffffffffffffffffffffffffffffffffffff16600360008681526020019081526020016000206002016040516109709190611e0b565b6000604051808303816000865af19150503d80600081146109ad576040519150601f19603f3d011682016040523d82523d6000602084013e6109b2565b606091505b5080925081935050508115610aab5760016003600086815260200190815260200160002060030160016101000a81548160ff02191690831515021790555060036000858152602001908152602001600020600101546003600086815260200190815260200160002060000160009054906101000a900473ffffffffffffffffffffffffffffffffffffffff1673ffffffffffffffffffffffffffffffffffffffff16857f1f920dbda597d7bf95035464170fa58d0a4b57f13a1c315ace6793b9f63688b860036000898152602001908152602001600020600201604051610a999190611e9c565b60405180910390a46001915050610b9b565b60036000858152602001908152602001600020600101546003600086815260200190815260200160002060000160009054906101000a900473ffffffffffffffffffffffffffffffffffffffff1673ffffffffffffffffffffffffffffffffffffffff16857fe10c49d9f7c71da23262367013434763cfdb2332267641728d25cd712c5c6a6860036000898152602001908152602001600020600201604051610b549190611e9c565b60405180910390a46000915050610b9b565b60006003600086815260200190815260200160002060030160006101000a81548160ff02191690831515021790555060019150505b92915050565b600081600160008481526020019081526020016000206002015414610bfb576040517f08c379a0000000000000000000000000000000000000000000000000000000008152600401610bf290611f5e565b60405180910390fd5b6001600083815260200190815260200160002060010154600160008481526020019081526020016000206000015460016000858152602001908152602001600020600201547f585a4aef50f8267a92b32412b331b20f7f8b96f2245b253b9cc50dcc621d339760405160405180910390a46001600083815260200190815260200160002060008082016000905560018201600090556002820160009055505060019050919050565b606060026000838152602001908152602001600020805480602002602001604051908101604052809291908181526020018280548015610d0257602002820191906000526020600020905b815481526020019060010190808311610cee575b50505050509050919050565b6000803088604051602001610d24929190611ddf565b6040516020818303038152906040528051906020012090503073ffffffffffffffffffffffffffffffffffffffff163373ffffffffffffffffffffffffffffffffffffffff1614610de057610da033604051602001610d839190611dc4565b604051602081830303815290604052805190602001206003611461565b610ddf576040517f08c379a0000000000000000000000000000000000000000000000000000000008152600401610dd690611efe565b60405180910390fd5b5b8573ffffffffffffffffffffffffffffffffffffffff166004600083815260200190815260200160002060020160009054906101000a900473ffffffffffffffffffffffffffffffffffffffff1673ffffffffffffffffffffffffffffffffffffffff1614610e8457600560008981526020019081526020016000208190806001815401808255809150506001900390600052602060002001600090919091909150555b876004600083815260200190815260200160002060000181905550866004600083815260200190815260200160002060010181905550856004600083815260200190815260200160002060020160006101000a81548173ffffffffffffffffffffffffffffffffffffffff021916908373ffffffffffffffffffffffffffffffffffffffff16021790555084600460008381526020019081526020016000206003019080519060200190610f39929190611536565b5083600460008381526020019081526020016000206004019080519060200190610f64929190611536565b5082600460008381526020019081526020016000206005019080519060200190610f8f9291906115bc565b508573ffffffffffffffffffffffffffffffffffffffff1688827f46149b18aa084502c3f12bc75e19eda8bda8d102b82cce8474677a6d0d5f43c58a898989604051610fde9493929190611f99565b60405180910390a4809150509695505050505050565b6000600360008054815260200190815260200160002060030160019054906101000a900460ff161561105b576040517f08c379a000000000000000000000000000000000000000000000000000000000815260040161105290611f1e565b60405180910390fd5b83600360008054815260200190815260200160002060000160006101000a81548173ffffffffffffffffffffffffffffffffffffffff021916908373ffffffffffffffffffffffffffffffffffffffff1602179055508260036000805481526020019081526020016000206001018190555081600360008054815260200190815260200160002060020190805190602001906110f8929190611536565b50828473ffffffffffffffffffffffffffffffffffffffff166000547f8afcfabcb00e47a53a8fc3e9f23ff47ee1926194bb1350dd007c50b412a6cee8856040516111439190611e7a565b60405180910390a461117c3360405160200161115f9190611dc4565b604051602081830303815290604052805190602001206001611461565b806111b457506111b3336040516020016111969190611dc4565b604051602081830303815290604052805190602001206002611461565b5b156111c8576111c66000546001610818565b505b6000808154809291906111da90612364565b919050555060016000546111ee9190612227565b90509392505050565b6000806000606080606060046000888152602001908152602001600020600001546004600089815260200190815260200160002060010154600460008a815260200190815260200160002060020160009054906101000a900473ffffffffffffffffffffffffffffffffffffffff16600460008b8152602001908152602001600020600301600460008c8152602001908152602001600020600401600460008d81526020019081526020016000206005018280546112b490612301565b80601f01602080910402602001604051908101604052809291908181526020018280546112e090612301565b801561132d5780601f106113025761010080835404028352916020019161132d565b820191906000526020600020905b81548152906001019060200180831161131057829003601f168201915b5050505050925081805461134090612301565b80601f016020809104026020016040519081016040528092919081815260200182805461136c90612301565b80156113b95780601f1061138e576101008083540402835291602001916113b9565b820191906000526020600020905b81548152906001019060200180831161139c57829003601f168201915b505050505091508080546113cc90612301565b80601f01602080910402602001604051908101604052809291908181526020018280546113f890612301565b80156114455780601f1061141a57610100808354040283529160200191611445565b820191906000526020600020905b81548152906001019060200180831161142857829003601f168201915b5050505050905095509550955095509550955091939550919395565b6000806000801b6001600086815260200190815260200160002060020154141561148f5760009150506114b0565b82600160008681526020019081526020016000206000015411159050809150505b92915050565b5080546114c290612301565b6000825580601f106114d457506114f3565b601f0160209004906000526020600020908101906114f29190611642565b5b50565b50805461150290612301565b6000825580601f106115145750611533565b601f0160209004906000526020600020908101906115329190611642565b5b50565b82805461154290612301565b90600052602060002090601f01602090048101928261156457600085556115ab565b82601f1061157d57805160ff19168380011785556115ab565b828001600101855582156115ab579182015b828111156115aa57825182559160200191906001019061158f565b5b5090506115b89190611642565b5090565b8280546115c890612301565b90600052602060002090601f0160209004810192826115ea5760008555611631565b82601f1061160357805160ff1916838001178555611631565b82800160010185558215611631579182015b82811115611630578251825591602001919060010190611615565b5b50905061163e9190611642565b5090565b5b8082111561165b576000816000905550600101611643565b5090565b600061167261166d8461211f565b6120fa565b90508281526020810184848401111561168a57600080fd5b6116958482856122bf565b509392505050565b60006116b06116ab84612150565b6120fa565b9050828152602081018484840111156116c857600080fd5b6116d38482856122bf565b509392505050565b6000813590506116ea816125c8565b92915050565b6000813590506116ff816125df565b92915050565b600081359050611714816125f6565b92915050565b6000813590506117298161260d565b92915050565b600082601f83011261174057600080fd5b813561175084826020860161165f565b91505092915050565b600082601f83011261176a57600080fd5b813561177a84826020860161169d565b91505092915050565b60008135905061179281612624565b92915050565b6000602082840312156117aa57600080fd5b60006117b8848285016116f0565b91505092915050565b6000806000606084860312156117d657600080fd5b60006117e4868287016116db565b93505060206117f586828701611783565b925050604084013567ffffffffffffffff81111561181257600080fd5b61181e8682870161172f565b9150509250925092565b60006020828403121561183a57600080fd5b60006118488482850161171a565b91505092915050565b6000806040838503121561186457600080fd5b60006118728582860161171a565b925050602061188385828601611783565b9150509250929050565b6000806000606084860312156118a257600080fd5b60006118b08682870161171a565b93505060206118c186828701611783565b92505060406118d286828701611783565b9150509250925092565b6000602082840312156118ee57600080fd5b60006118fc84828501611783565b91505092915050565b6000806040838503121561191857600080fd5b600061192685828601611783565b925050602061193785828601611705565b9150509250929050565b60008060008060008060c0878903121561195a57600080fd5b600061196889828a01611783565b965050602061197989828a01611783565b955050604061198a89828a016116db565b945050606087013567ffffffffffffffff8111156119a757600080fd5b6119b389828a0161172f565b935050608087013567ffffffffffffffff8111156119d057600080fd5b6119dc89828a0161172f565b92505060a087013567ffffffffffffffff8111156119f957600080fd5b611a0589828a01611759565b9150509295509295509295565b6000611a1e8383611abd565b60208301905092915050565b611a338161225b565b82525050565b611a4a611a458261225b565b6123ad565b82525050565b6000611a5b826121bb565b611a6581856121e9565b9350611a7083612181565b8060005b83811015611aa1578151611a888882611a12565b9750611a93836121dc565b925050600181019050611a74565b5085935050505092915050565b611ab78161227f565b82525050565b611ac68161228b565b82525050565b611ad58161228b565b82525050565b6000611ae6826121c6565b611af081856121fa565b9350611b008185602086016122ce565b611b0981612468565b840191505092915050565b60008154611b2181612301565b611b2b81866121fa565b94506001821660008114611b465760018114611b5857611b8b565b60ff1983168652602086019350611b8b565b611b6185612191565b60005b83811015611b8357815481890152600182019150602081019050611b64565b808801955050505b50505092915050565b60008154611ba181612301565b611bab818661220b565b94506001821660008114611bc65760018114611bd757611c0a565b60ff19831686528186019350611c0a565b611be085612191565b60005b83811015611c0257815481890152600182019150602081019050611be3565b838801955050505b50505092915050565b6000611c1e826121d1565b611c288185612216565b9350611c388185602086016122ce565b611c4181612468565b840191505092915050565b60008154611c5981612301565b611c638186612216565b94506001821660008114611c7e5760018114611c9057611cc3565b60ff1983168652602086019350611cc3565b611c99856121a6565b60005b83811015611cbb57815481890152600182019150602081019050611c9c565b808801955050505b50505092915050565b6000611cd9601f83612216565b9150611ce482612486565b602082019050919050565b6000611cfc601283612216565b9150611d07826124af565b602082019050919050565b6000611d1f602583612216565b9150611d2a826124d8565b604082019050919050565b6000611d42601083612216565b9150611d4d82612527565b602082019050919050565b6000611d65602383612216565b9150611d7082612550565b604082019050919050565b6000611d88600b83612216565b9150611d938261259f565b602082019050919050565b611da7816122b5565b82525050565b611dbe611db9826122b5565b6123d1565b82525050565b6000611dd08284611a39565b60148201915081905092915050565b6000611deb8285611a39565b601482019150611dfb8284611dad565b6020820191508190509392505050565b6000611e178284611b94565b915081905092915050565b60006020820190508181036000830152611e3c8184611a50565b905092915050565b6000602082019050611e596000830184611aae565b92915050565b6000602082019050611e746000830184611acc565b92915050565b60006020820190508181036000830152611e948184611adb565b905092915050565b60006020820190508181036000830152611eb68184611b14565b905092915050565b60006020820190508181036000830152611ed781611ccc565b9050919050565b60006020820190508181036000830152611ef781611cef565b9050919050565b60006020820190508181036000830152611f1781611d12565b9050919050565b60006020820190508181036000830152611f3781611d35565b9050919050565b60006020820190508181036000830152611f5781611d58565b9050919050565b60006020820190508181036000830152611f7781611d7b565b9050919050565b6000602082019050611f936000830184611d9e565b92915050565b6000608082019050611fae6000830187611d9e565b8181036020830152611fc08186611adb565b90508181036040830152611fd48185611adb565b90508181036060830152611fe88184611c13565b905095945050505050565b60006080820190506120086000830187611d9e565b818103602083015261201a8186611b14565b9050818103604083015261202e8185611b14565b905081810360608301526120428184611c4c565b905095945050505050565b600060c0820190506120626000830189611d9e565b61206f6020830188611d9e565b61207c6040830187611a2a565b818103606083015261208e8186611adb565b905081810360808301526120a28185611adb565b905081810360a08301526120b68184611c13565b9050979650505050505050565b60006060820190506120d86000830186611d9e565b6120e56020830185611d9e565b6120f26040830184611acc565b949350505050565b6000612104612115565b90506121108282612333565b919050565b6000604051905090565b600067ffffffffffffffff82111561213a57612139612439565b5b61214382612468565b9050602081019050919050565b600067ffffffffffffffff82111561216b5761216a612439565b5b61217482612468565b9050602081019050919050565b6000819050602082019050919050565b60008190508160005260206000209050919050565b60008190508160005260206000209050919050565b600081519050919050565b600081519050919050565b600081519050919050565b6000602082019050919050565b600082825260208201905092915050565b600082825260208201905092915050565b600081905092915050565b600082825260208201905092915050565b6000612232826122b5565b915061223d836122b5565b9250828210156122505761224f6123db565b5b828203905092915050565b600061226682612295565b9050919050565b600061227882612295565b9050919050565b60008115159050919050565b6000819050919050565b600073ffffffffffffffffffffffffffffffffffffffff82169050919050565b6000819050919050565b82818337600083830152505050565b60005b838110156122ec5780820151818401526020810190506122d1565b838111156122fb576000848401525b50505050565b6000600282049050600182168061231957607f821691505b6020821081141561232d5761232c61240a565b5b50919050565b61233c82612468565b810181811067ffffffffffffffff8211171561235b5761235a612439565b5b80604052505050565b600061236f826122b5565b91507fffffffffffffffffffffffffffffffffffffffffffffffffffffffffffffffff8214156123a2576123a16123db565b5b600182019050919050565b60006123b8826123bf565b9050919050565b60006123ca82612479565b9050919050565b6000819050919050565b7f4e487b7100000000000000000000000000000000000000000000000000000000600052601160045260246000fd5b7f4e487b7100000000000000000000000000000000000000000000000000000000600052602260045260246000fd5b7f4e487b7100000000000000000000000000000000000000000000000000000000600052604160045260246000fd5b6000601f19601f8301169050919050565b60008160601b9050919050565b7f53656e64657220646f6573206e6f74206861766520616374696f6e206b657900600082015250565b7f4b657920616c7265616479206578697374730000000000000000000000000000600082015250565b7f53656e64657220646f6573206e6f74206861766520636c61696d207369676e6560008201527f72206b6579000000000000000000000000000000000000000000000000000000602082015250565b7f416c726561647920657865637574656400000000000000000000000000000000600082015250565b7f53656e64657220646f6573206e6f742068617665206d616e6167656d656e742060008201527f6b65790000000000000000000000000000000000000000000000000000000000602082015250565b7f4e6f2073756368206b6579000000000000000000000000000000000000000000600082015250565b6125d18161225b565b81146125dc57600080fd5b50565b6125e88161226d565b81146125f357600080fd5b50565b6125ff8161227f565b811461260a57600080fd5b50565b6126168161228b565b811461262157600080fd5b50565b61262d816122b5565b811461263857600080fd5b5056fea264697066735822122058d90efa96a433b18c9f8e82b3ab682e6228fa515e81dbad6ce2170f75f6478364736f6c63430008010033",
  "immutableReferences": {},
  "source": "// SPDX-License-Identifier: MIT\r\npragma solidity >=0.4.22 <0.9.0;\r\n\r\nimport './xERC735.sol';\r\nimport './xKeyHolder.sol';\r\n\r\n// **Warning!** This file is a protoype version of our work around ERC 725.\r\n// This file is now out of date and **should not be used**.\r\n// Our current identity contracts are here:\r\n// https://github.com/OriginProtocol/origin/tree/master/origin-contracts/contracts/identity\r\n\r\ncontract xClaimHolder is xKeyHolder, xERC735 {\r\n\r\n    mapping (bytes32 => Claim) claims;\r\n    mapping (uint256 => bytes32[]) claimsByType;\r\n\r\n    function addClaim(\r\n        uint256 _claimType,\r\n        uint256 _scheme,\r\n        address _issuer,\r\n        bytes memory _signature,\r\n        bytes memory _data,\r\n        string memory _uri\r\n    )\r\n        public override returns (bytes32 claimRequestId){ //_issuer replace with addNewClaimHolder contract\r\n        bytes32 claimId = keccak256(abi.encodePacked(address(this), _claimType));\r\n\r\n        if (msg.sender != address(this)) {\r\n          require(keyHasPurpose(keccak256(abi.encodePacked(msg.sender)), 3), \"Sender does not have claim signer key\");\r\n        }\r\n\r\n        if (claims[claimId].issuer != _issuer) {\r\n            claimsByType[_claimType].push(claimId);\r\n        }\r\n\r\n        claims[claimId].claimType = _claimType;\r\n        claims[claimId].scheme = _scheme;\r\n        claims[claimId].issuer = _issuer;\r\n        claims[claimId].signature = _signature;\r\n        claims[claimId].data = _data;\r\n        claims[claimId].uri = _uri;\r\n\r\n        emit ClaimAdded(\r\n            claimId,\r\n            _claimType,\r\n            _scheme,\r\n            _issuer,\r\n            _signature,\r\n            _data,\r\n            _uri\r\n        );\r\n\r\n        return claimId;\r\n    }\r\n\r\n    function removeClaim(bytes32 _claimId) public override returns (bool success) {\r\n        if (msg.sender != address(this)) {\r\n          require(keyHasPurpose(keccak256(abi.encodePacked(msg.sender)), 1), \"Sender does not have management key\");\r\n        }\r\n\r\n        /* uint index; */\r\n        /* (index, ) = claimsByType[claims[_claimId].claimType].indexOf(_claimId);\r\n        claimsByType[claims[_claimId].claimType].removeByIndex(index); */\r\n\r\n        emit ClaimRemoved(\r\n            _claimId,\r\n            claims[_claimId].claimType,\r\n            claims[_claimId].scheme,\r\n            claims[_claimId].issuer,\r\n            claims[_claimId].signature,\r\n            claims[_claimId].data,\r\n            claims[_claimId].uri\r\n        );\r\n\r\n        delete claims[_claimId];\r\n        return true;\r\n    }\r\n\r\n    function getClaim(bytes32 _claimId)\r\n        public view override\r\n        returns(\r\n            uint256 claimType,\r\n            uint256 scheme,\r\n            address issuer,\r\n            bytes memory signature,\r\n            bytes memory data,\r\n            string memory uri\r\n        )\r\n    {\r\n        return (\r\n            claims[_claimId].claimType,\r\n            claims[_claimId].scheme,\r\n            claims[_claimId].issuer,\r\n            claims[_claimId].signature,\r\n            claims[_claimId].data,\r\n            claims[_claimId].uri\r\n        );\r\n    }\r\n\r\n    function getClaimIdsByType(uint256 _claimType)\r\n        public view override\r\n        returns(bytes32[] memory claimIds)\r\n    {\r\n        return claimsByType[_claimType];\r\n    }\r\n     function destroy(address payable addr)public{\r\n        selfdestruct(addr);\r\n    }\r\n\r\n}",
  "sourcePath": "D:/XAMPP/htdocs/issuerMod/contracts/xClaimHolder.sol",
  "compiler": {
    "name": "solc",
    "version": "0.8.1+commit.df193b15.Emscripten.clang"
  },
  "schemaVersion": "3.3.4",
  "updatedAt": "2021-12-21T13:08:21.418Z",
  "networkType": "ethereum",
  "devdoc": {
    "kind": "dev",
    "methods": {},
    "version": 1
  },
  "userdoc": {
    "kind": "user",
    "methods": {},
    "version": 1
  }
}