{
  "contractName": "xIdentity",
  "abi": [
    {
      "inputs": [
        {
          "internalType": "uint256[]",
          "name": "_claimType",
          "type": "uint256[]"
        },
        {
          "internalType": "uint256[]",
          "name": "_scheme",
          "type": "uint256[]"
        },
        {
          "internalType": "address[]",
          "name": "_issuer",
          "type": "address[]"
        },
        {
          "internalType": "bytes",
          "name": "_signature",
          "type": "bytes"
        },
        {
          "internalType": "bytes",
          "name": "_data",
          "type": "bytes"
        },
        {
          "internalType": "string",
          "name": "_uri",
          "type": "string"
        },
        {
          "internalType": "uint256[]",
          "name": "_sigSizes",
          "type": "uint256[]"
        },
        {
          "internalType": "uint256[]",
          "name": "dataSizes",
          "type": "uint256[]"
        },
        {
          "internalType": "uint256[]",
          "name": "uriSizes",
          "type": "uint256[]"
        }
      ],
      "stateMutability": "nonpayable",
      "type": "constructor"
    },
    {
      "anonymous": false,
      "inputs": [
        {
          "indexed": true,
          "internalType": "uint256",
          "name": "executionId",
          "type": "uint256"
        },
        {
          "indexed": false,
          "internalType": "bool",
          "name": "approved",
          "type": "bool"
        }
      ],
      "name": "Approved",
      "type": "event"
    },
    {
      "anonymous": false,
      "inputs": [
        {
          "indexed": true,
          "internalType": "bytes32",
          "name": "claimId",
          "type": "bytes32"
        },
        {
          "indexed": true,
          "internalType": "uint256",
          "name": "claimType",
          "type": "uint256"
        },
        {
          "indexed": true,
          "internalType": "address",
          "name": "issuer",
          "type": "address"
        },
        {
          "indexed": false,
          "internalType": "uint256",
          "name": "signatureType",
          "type": "uint256"
        },
        {
          "indexed": false,
          "internalType": "bytes32",
          "name": "signature",
          "type": "bytes32"
        },
        {
          "indexed": false,
          "internalType": "bytes",
          "name": "claim",
          "type": "bytes"
        },
        {
          "indexed": false,
          "internalType": "string",
          "name": "uri",
          "type": "string"
        }
      ],
      "name": "ClaimAdded",
      "type": "event"
    },
    {
      "anonymous": false,
      "inputs": [
        {
          "indexed": true,
          "internalType": "bytes32",
          "name": "claimId",
          "type": "bytes32"
        },
        {
          "indexed": true,
          "internalType": "uint256",
          "name": "claimType",
          "type": "uint256"
        },
        {
          "indexed": false,
          "internalType": "uint256",
          "name": "scheme",
          "type": "uint256"
        },
        {
          "indexed": true,
          "internalType": "address",
          "name": "issuer",
          "type": "address"
        },
        {
          "indexed": false,
          "internalType": "bytes",
          "name": "signature",
          "type": "bytes"
        },
        {
          "indexed": false,
          "internalType": "bytes",
          "name": "data",
          "type": "bytes"
        },
        {
          "indexed": false,
          "internalType": "string",
          "name": "uri",
          "type": "string"
        }
      ],
      "name": "ClaimAdded",
      "type": "event"
    },
    {
      "anonymous": false,
      "inputs": [
        {
          "indexed": true,
          "internalType": "bytes32",
          "name": "claimId",
          "type": "bytes32"
        },
        {
          "indexed": true,
          "internalType": "uint256",
          "name": "claimType",
          "type": "uint256"
        },
        {
          "indexed": false,
          "internalType": "uint256",
          "name": "scheme",
          "type": "uint256"
        },
        {
          "indexed": true,
          "internalType": "address",
          "name": "issuer",
          "type": "address"
        },
        {
          "indexed": false,
          "internalType": "bytes",
          "name": "signature",
          "type": "bytes"
        },
        {
          "indexed": false,
          "internalType": "bytes",
          "name": "data",
          "type": "bytes"
        },
        {
          "indexed": false,
          "internalType": "string",
          "name": "uri",
          "type": "string"
        }
      ],
      "name": "ClaimChanged",
      "type": "event"
    },
    {
      "anonymous": false,
      "inputs": [
        {
          "indexed": true,
          "internalType": "bytes32",
          "name": "claimId",
          "type": "bytes32"
        },
        {
          "indexed": true,
          "internalType": "uint256",
          "name": "claimType",
          "type": "uint256"
        },
        {
          "indexed": false,
          "internalType": "uint256",
          "name": "scheme",
          "type": "uint256"
        },
        {
          "indexed": true,
          "internalType": "address",
          "name": "issuer",
          "type": "address"
        },
        {
          "indexed": false,
          "internalType": "bytes",
          "name": "signature",
          "type": "bytes"
        },
        {
          "indexed": false,
          "internalType": "bytes",
          "name": "data",
          "type": "bytes"
        },
        {
          "indexed": false,
          "internalType": "string",
          "name": "uri",
          "type": "string"
        }
      ],
      "name": "ClaimRemoved",
      "type": "event"
    },
    {
      "anonymous": false,
      "inputs": [
        {
          "indexed": true,
          "internalType": "uint256",
          "name": "claimRequestId",
          "type": "uint256"
        },
        {
          "indexed": true,
          "internalType": "uint256",
          "name": "claimType",
          "type": "uint256"
        },
        {
          "indexed": false,
          "internalType": "uint256",
          "name": "scheme",
          "type": "uint256"
        },
        {
          "indexed": true,
          "internalType": "address",
          "name": "issuer",
          "type": "address"
        },
        {
          "indexed": false,
          "internalType": "bytes",
          "name": "signature",
          "type": "bytes"
        },
        {
          "indexed": false,
          "internalType": "bytes",
          "name": "data",
          "type": "bytes"
        },
        {
          "indexed": false,
          "internalType": "string",
          "name": "uri",
          "type": "string"
        }
      ],
      "name": "ClaimRequested",
      "type": "event"
    },
    {
      "anonymous": false,
      "inputs": [
        {
          "indexed": true,
          "internalType": "uint256",
          "name": "executionId",
          "type": "uint256"
        },
        {
          "indexed": true,
          "internalType": "address",
          "name": "to",
          "type": "address"
        },
        {
          "indexed": true,
          "internalType": "uint256",
          "name": "value",
          "type": "uint256"
        },
        {
          "indexed": false,
          "internalType": "bytes",
          "name": "data",
          "type": "bytes"
        }
      ],
      "name": "Executed",
      "type": "event"
    },
    {
      "anonymous": false,
      "inputs": [
        {
          "indexed": true,
          "internalType": "uint256",
          "name": "executionId",
          "type": "uint256"
        },
        {
          "indexed": true,
          "internalType": "address",
          "name": "to",
          "type": "address"
        },
        {
          "indexed": true,
          "internalType": "uint256",
          "name": "value",
          "type": "uint256"
        },
        {
          "indexed": false,
          "internalType": "bytes",
          "name": "data",
          "type": "bytes"
        }
      ],
      "name": "ExecutionFailed",
      "type": "event"
    },
    {
      "anonymous": false,
      "inputs": [
        {
          "indexed": true,
          "internalType": "uint256",
          "name": "executionId",
          "type": "uint256"
        },
        {
          "indexed": true,
          "internalType": "address",
          "name": "to",
          "type": "address"
        },
        {
          "indexed": true,
          "internalType": "uint256",
          "name": "value",
          "type": "uint256"
        },
        {
          "indexed": false,
          "internalType": "bytes",
          "name": "data",
          "type": "bytes"
        }
      ],
      "name": "ExecutionRequested",
      "type": "event"
    },
    {
      "anonymous": false,
      "inputs": [
        {
          "indexed": true,
          "internalType": "bytes32",
          "name": "key",
          "type": "bytes32"
        },
        {
          "indexed": true,
          "internalType": "uint256",
          "name": "purpose",
          "type": "uint256"
        },
        {
          "indexed": true,
          "internalType": "uint256",
          "name": "keyType",
          "type": "uint256"
        }
      ],
      "name": "KeyAdded",
      "type": "event"
    },
    {
      "anonymous": false,
      "inputs": [
        {
          "indexed": true,
          "internalType": "bytes32",
          "name": "key",
          "type": "bytes32"
        },
        {
          "indexed": true,
          "internalType": "uint256",
          "name": "purpose",
          "type": "uint256"
        },
        {
          "indexed": true,
          "internalType": "uint256",
          "name": "keyType",
          "type": "uint256"
        }
      ],
      "name": "KeyRemoved",
      "type": "event"
    },
    {
      "inputs": [
        {
          "internalType": "uint256",
          "name": "_claimType",
          "type": "uint256"
        },
        {
          "internalType": "uint256",
          "name": "_scheme",
          "type": "uint256"
        },
        {
          "internalType": "address",
          "name": "_issuer",
          "type": "address"
        },
        {
          "internalType": "bytes",
          "name": "_signature",
          "type": "bytes"
        },
        {
          "internalType": "bytes",
          "name": "_data",
          "type": "bytes"
        },
        {
          "internalType": "string",
          "name": "_uri",
          "type": "string"
        }
      ],
      "name": "addClaim",
      "outputs": [
        {
          "internalType": "bytes32",
          "name": "claimRequestId",
          "type": "bytes32"
        }
      ],
      "stateMutability": "nonpayable",
      "type": "function"
    },
    {
      "inputs": [
        {
          "internalType": "bytes32",
          "name": "_key",
          "type": "bytes32"
        },
        {
          "internalType": "uint256",
          "name": "_purpose",
          "type": "uint256"
        },
        {
          "internalType": "uint256",
          "name": "_type",
          "type": "uint256"
        }
      ],
      "name": "addKey",
      "outputs": [
        {
          "internalType": "bool",
          "name": "success",
          "type": "bool"
        }
      ],
      "stateMutability": "nonpayable",
      "type": "function"
    },
    {
      "inputs": [
        {
          "internalType": "uint256",
          "name": "_id",
          "type": "uint256"
        },
        {
          "internalType": "bool",
          "name": "_approve",
          "type": "bool"
        }
      ],
      "name": "approve",
      "outputs": [
        {
          "internalType": "bool",
          "name": "success",
          "type": "bool"
        }
      ],
      "stateMutability": "nonpayable",
      "type": "function"
    },
    {
      "inputs": [
        {
          "internalType": "address",
          "name": "_to",
          "type": "address"
        },
        {
          "internalType": "uint256",
          "name": "_value",
          "type": "uint256"
        },
        {
          "internalType": "bytes",
          "name": "_data",
          "type": "bytes"
        }
      ],
      "name": "execute",
      "outputs": [
        {
          "internalType": "uint256",
          "name": "executionId",
          "type": "uint256"
        }
      ],
      "stateMutability": "nonpayable",
      "type": "function"
    },
    {
      "inputs": [],
      "name": "getAddr",
      "outputs": [
        {
          "internalType": "address",
          "name": "",
          "type": "address"
        }
      ],
      "stateMutability": "view",
      "type": "function"
    },
    {
      "inputs": [
        {
          "internalType": "bytes32",
          "name": "_claimId",
          "type": "bytes32"
        }
      ],
      "name": "getClaim",
      "outputs": [
        {
          "internalType": "uint256",
          "name": "claimType",
          "type": "uint256"
        },
        {
          "internalType": "uint256",
          "name": "scheme",
          "type": "uint256"
        },
        {
          "internalType": "address",
          "name": "issuer",
          "type": "address"
        },
        {
          "internalType": "bytes",
          "name": "signature",
          "type": "bytes"
        },
        {
          "internalType": "bytes",
          "name": "data",
          "type": "bytes"
        },
        {
          "internalType": "string",
          "name": "uri",
          "type": "string"
        }
      ],
      "stateMutability": "view",
      "type": "function"
    },
    {
      "inputs": [
        {
          "internalType": "uint256",
          "name": "_claimType",
          "type": "uint256"
        }
      ],
      "name": "getClaimIdsByType",
      "outputs": [
        {
          "internalType": "bytes32[]",
          "name": "claimIds",
          "type": "bytes32[]"
        }
      ],
      "stateMutability": "view",
      "type": "function"
    },
    {
      "inputs": [
        {
          "internalType": "bytes32",
          "name": "_key",
          "type": "bytes32"
        }
      ],
      "name": "getKey",
      "outputs": [
        {
          "internalType": "uint256",
          "name": "purpose",
          "type": "uint256"
        },
        {
          "internalType": "uint256",
          "name": "keyType",
          "type": "uint256"
        },
        {
          "internalType": "bytes32",
          "name": "key",
          "type": "bytes32"
        }
      ],
      "stateMutability": "view",
      "type": "function"
    },
    {
      "inputs": [
        {
          "internalType": "bytes32",
          "name": "_key",
          "type": "bytes32"
        }
      ],
      "name": "getKeyPurpose",
      "outputs": [
        {
          "internalType": "uint256",
          "name": "purpose",
          "type": "uint256"
        }
      ],
      "stateMutability": "view",
      "type": "function"
    },
    {
      "inputs": [
        {
          "internalType": "uint256",
          "name": "_purpose",
          "type": "uint256"
        }
      ],
      "name": "getKeysByPurpose",
      "outputs": [
        {
          "internalType": "bytes32[]",
          "name": "_keys",
          "type": "bytes32[]"
        }
      ],
      "stateMutability": "view",
      "type": "function"
    },
    {
      "inputs": [
        {
          "internalType": "bytes32",
          "name": "_key",
          "type": "bytes32"
        },
        {
          "internalType": "uint256",
          "name": "_purpose",
          "type": "uint256"
        }
      ],
      "name": "keyHasPurpose",
      "outputs": [
        {
          "internalType": "bool",
          "name": "result",
          "type": "bool"
        }
      ],
      "stateMutability": "view",
      "type": "function"
    },
    {
      "inputs": [
        {
          "internalType": "bytes32",
          "name": "_claimId",
          "type": "bytes32"
        }
      ],
      "name": "removeClaim",
      "outputs": [
        {
          "internalType": "bool",
          "name": "success",
          "type": "bool"
        }
      ],
      "stateMutability": "nonpayable",
      "type": "function"
    },
    {
      "inputs": [
        {
          "internalType": "bytes32",
          "name": "_key",
          "type": "bytes32"
        }
      ],
      "name": "removeKey",
      "outputs": [
        {
          "internalType": "bool",
          "name": "success",
          "type": "bool"
        }
      ],
      "stateMutability": "nonpayable",
      "type": "function"
    },
    {
      "inputs": [
        {
          "internalType": "bytes",
          "name": "_str",
          "type": "bytes"
        },
        {
          "internalType": "uint256",
          "name": "_offset",
          "type": "uint256"
        },
        {
          "internalType": "uint256",
          "name": "_length",
          "type": "uint256"
        }
      ],
      "name": "getBytes",
      "outputs": [
        {
          "internalType": "bytes",
          "name": "",
          "type": "bytes"
        }
      ],
      "stateMutability": "nonpayable",
      "type": "function"
    },
    {
      "inputs": [
        {
          "internalType": "string",
          "name": "_str",
          "type": "string"
        },
        {
          "internalType": "uint256",
          "name": "_offset",
          "type": "uint256"
        },
        {
          "internalType": "uint256",
          "name": "_length",
          "type": "uint256"
        }
      ],
      "name": "getString",
      "outputs": [
        {
          "internalType": "string",
          "name": "",
          "type": "string"
        }
      ],
      "stateMutability": "nonpayable",
      "type": "function"
    }
  ],
  "bytecode": "0x608060405230600660006101000a81548173ffffffffffffffffffffffffffffffffffffffff021916908373ffffffffffffffffffffffffffffffffffffffff1602179055503480156200005257600080fd5b506040516200404738038062004047833981810160405281019062000078919062000daf565b6000336040516020016200008d9190620010c8565b6040516020818303038152906040528051906020012090508060016000838152602001908152602001600020600201819055506001806000838152602001908152602001600020600001819055506001806000838152602001908152602001600020600101819055506002600060018152602001908152602001600020819080600181540180825580915050600190039060005260206000200160009091909190915055600180600083815260200190815260200160002060000154827f480000bb1edad8ca1470381cc334b1917fbd51c6531f3a623ea8e0ec7e38a6e960405160405180910390a4506000806000905060008060005b8d518110156200070c578b8181518110620001c8577f4e487b7100000000000000000000000000000000000000000000000000000000600052603260045260246000fd5b60200260200101518e82815181106200020a577f4e487b7100000000000000000000000000000000000000000000000000000000600052603260045260246000fd5b602002602001015160405160200162000225929190620010e5565b6040516020818303038152906040528051906020012094506040518060c001604052808f838151811062000282577f4e487b7100000000000000000000000000000000000000000000000000000000600052603260045260246000fd5b602002602001015181526020018e8381518110620002c9577f4e487b7100000000000000000000000000000000000000000000000000000000600052603260045260246000fd5b602002602001015181526020018d838151811062000310577f4e487b7100000000000000000000000000000000000000000000000000000000600052603260045260246000fd5b602002602001015173ffffffffffffffffffffffffffffffffffffffff168152602001620003878d878c868151811062000373577f4e487b7100000000000000000000000000000000000000000000000000000000600052603260045260246000fd5b60200260200101516200072060201b60201c565b8152602001620003e08c858b8681518110620003cc577f4e487b7100000000000000000000000000000000000000000000000000000000600052603260045260246000fd5b60200260200101516200072060201b60201c565b8152602001620004398b868a868151811062000425577f4e487b7100000000000000000000000000000000000000000000000000000000600052603260045260246000fd5b60200260200101516200089960201b60201c565b81525060046000878152602001908152602001600020600082015181600001556020820151816001015560408201518160020160006101000a81548173ffffffffffffffffffffffffffffffffffffffff021916908373ffffffffffffffffffffffffffffffffffffffff1602179055506060820151816003019080519060200190620004c892919062000a18565b506080820151816004019080519060200190620004e792919062000a18565b5060a08201518160050190805190602001906200050692919062000aa9565b5090505087818151811062000544577f4e487b7100000000000000000000000000000000000000000000000000000000600052603260045260246000fd5b602002602001015184620005599190620012b6565b935085818151811062000595577f4e487b7100000000000000000000000000000000000000000000000000000000600052603260045260246000fd5b602002602001015183620005aa9190620012b6565b9250868181518110620005e6577f4e487b7100000000000000000000000000000000000000000000000000000000600052603260045260246000fd5b602002602001015182620005fb9190620012b6565b91506004600086815260200190815260200160002060020160009054906101000a900473ffffffffffffffffffffffffffffffffffffffff1673ffffffffffffffffffffffffffffffffffffffff166004600087815260200190815260200160002060000154867f46149b18aa084502c3f12bc75e19eda8bda8d102b82cce8474677a6d0d5f43c5600460008a815260200190815260200160002060010154600460008b8152602001908152602001600020600301600460008c8152602001908152602001600020600401600460008d8152602001908152602001600020600501604051620006ee949392919062001115565b60405180910390a480806200070390620013f3565b91505062000184565b505050505050505050505050505062001552565b606060008267ffffffffffffffff81111562000765577f4e487b7100000000000000000000000000000000000000000000000000000000600052604160045260246000fd5b6040519080825280601f01601f191660200182016040528015620007985781602001600182028036833780820191505090505b5090506000808590505b8486620007b09190620012b6565b8110156200088c57868181518110620007f2577f4e487b7100000000000000000000000000000000000000000000000000000000600052603260045260246000fd5b602001015160f81c60f81b83838151811062000837577f4e487b7100000000000000000000000000000000000000000000000000000000600052603260045260246000fd5b60200101907effffffffffffffffffffffffffffffffffffffffffffffffffffffffffffff1916908160001a90535081806200087390620013f3565b92505080806200088390620013f3565b915050620007a2565b5081925050509392505050565b6060600084905060008367ffffffffffffffff811115620008e3577f4e487b7100000000000000000000000000000000000000000000000000000000600052604160045260246000fd5b6040519080825280601f01601f191660200182016040528015620009165781602001600182028036833780820191505090505b5090506000808690505b85876200092e9190620012b6565b81101562000a0a5783818151811062000970577f4e487b7100000000000000000000000000000000000000000000000000000000600052603260045260246000fd5b602001015160f81c60f81b838381518110620009b5577f4e487b7100000000000000000000000000000000000000000000000000000000600052603260045260246000fd5b60200101907effffffffffffffffffffffffffffffffffffffffffffffffffffffffffffff1916908160001a9053508180620009f190620013f3565b925050808062000a0190620013f3565b91505062000920565b508193505050509392505050565b82805462000a269062001387565b90600052602060002090601f01602090048101928262000a4a576000855562000a96565b82601f1062000a6557805160ff191683800117855562000a96565b8280016001018555821562000a96579182015b8281111562000a9557825182559160200191906001019062000a78565b5b50905062000aa5919062000b3a565b5090565b82805462000ab79062001387565b90600052602060002090601f01602090048101928262000adb576000855562000b27565b82601f1062000af657805160ff191683800117855562000b27565b8280016001018555821562000b27579182015b8281111562000b2657825182559160200191906001019062000b09565b5b50905062000b36919062000b3a565b5090565b5b8082111562000b5557600081600090555060010162000b3b565b5090565b600062000b7062000b6a84620011a0565b62001177565b9050808382526020820190508285602086028201111562000b9057600080fd5b60005b8581101562000bc4578162000ba9888262000ccd565b84526020840193506020830192505060018101905062000b93565b5050509392505050565b600062000be562000bdf84620011cf565b62001177565b9050808382526020820190508285602086028201111562000c0557600080fd5b60005b8581101562000c39578162000c1e888262000d98565b84526020840193506020830192505060018101905062000c08565b5050509392505050565b600062000c5a62000c5484620011fe565b62001177565b90508281526020810184848401111562000c7357600080fd5b62000c8084828562001351565b509392505050565b600062000c9f62000c998462001234565b62001177565b90508281526020810184848401111562000cb857600080fd5b62000cc584828562001351565b509392505050565b60008151905062000cde816200151e565b92915050565b600082601f83011262000cf657600080fd5b815162000d0884826020860162000b59565b91505092915050565b600082601f83011262000d2357600080fd5b815162000d3584826020860162000bce565b91505092915050565b600082601f83011262000d5057600080fd5b815162000d6284826020860162000c43565b91505092915050565b600082601f83011262000d7d57600080fd5b815162000d8f84826020860162000c88565b91505092915050565b60008151905062000da98162001538565b92915050565b60008060008060008060008060006101208a8c03121562000dcf57600080fd5b60008a015167ffffffffffffffff81111562000dea57600080fd5b62000df88c828d0162000d11565b99505060208a015167ffffffffffffffff81111562000e1657600080fd5b62000e248c828d0162000d11565b98505060408a015167ffffffffffffffff81111562000e4257600080fd5b62000e508c828d0162000ce4565b97505060608a015167ffffffffffffffff81111562000e6e57600080fd5b62000e7c8c828d0162000d3e565b96505060808a015167ffffffffffffffff81111562000e9a57600080fd5b62000ea88c828d0162000d3e565b95505060a08a015167ffffffffffffffff81111562000ec657600080fd5b62000ed48c828d0162000d6b565b94505060c08a015167ffffffffffffffff81111562000ef257600080fd5b62000f008c828d0162000d11565b93505060e08a015167ffffffffffffffff81111562000f1e57600080fd5b62000f2c8c828d0162000d11565b9250506101008a015167ffffffffffffffff81111562000f4b57600080fd5b62000f598c828d0162000d11565b9150509295985092959850929598565b62000f7e62000f788262001313565b62001441565b82525050565b6000815462000f938162001387565b62000f9f818662001294565b9450600182166000811462000fbd576001811462000fd05762001007565b60ff198316865260208601935062001007565b62000fdb856200126a565b60005b8381101562000fff5781548189015260018201915060208101905062000fde565b808801955050505b50505092915050565b600081546200101f8162001387565b6200102b8186620012a5565b945060018216600081146200104957600181146200105c5762001093565b60ff198316865260208601935062001093565b62001067856200127f565b60005b838110156200108b578154818901526001820191506020810190506200106a565b808801955050505b50505092915050565b620010a78162001347565b82525050565b620010c2620010bc8262001347565b62001469565b82525050565b6000620010d6828462000f69565b60148201915081905092915050565b6000620010f3828562000f69565b601482019150620011058284620010ad565b6020820191508190509392505050565b60006080820190506200112c60008301876200109c565b818103602083015262001140818662000f84565b9050818103604083015262001156818562000f84565b905081810360608301526200116c818462001010565b905095945050505050565b60006200118362001196565b9050620011918282620013bd565b919050565b6000604051905090565b600067ffffffffffffffff821115620011be57620011bd620014d1565b5b602082029050602081019050919050565b600067ffffffffffffffff821115620011ed57620011ec620014d1565b5b602082029050602081019050919050565b600067ffffffffffffffff8211156200121c576200121b620014d1565b5b620012278262001500565b9050602081019050919050565b600067ffffffffffffffff821115620012525762001251620014d1565b5b6200125d8262001500565b9050602081019050919050565b60008190508160005260206000209050919050565b60008190508160005260206000209050919050565b600082825260208201905092915050565b600082825260208201905092915050565b6000620012c38262001347565b9150620012d08362001347565b9250827fffffffffffffffffffffffffffffffffffffffffffffffffffffffffffffffff0382111562001308576200130762001473565b5b828201905092915050565b6000620013208262001327565b9050919050565b600073ffffffffffffffffffffffffffffffffffffffff82169050919050565b6000819050919050565b60005b838110156200137157808201518184015260208101905062001354565b8381111562001381576000848401525b50505050565b60006002820490506001821680620013a057607f821691505b60208210811415620013b757620013b6620014a2565b5b50919050565b620013c88262001500565b810181811067ffffffffffffffff82111715620013ea57620013e9620014d1565b5b80604052505050565b6000620014008262001347565b91507fffffffffffffffffffffffffffffffffffffffffffffffffffffffffffffffff82141562001436576200143562001473565b5b600182019050919050565b60006200144e8262001455565b9050919050565b6000620014628262001511565b9050919050565b6000819050919050565b7f4e487b7100000000000000000000000000000000000000000000000000000000600052601160045260246000fd5b7f4e487b7100000000000000000000000000000000000000000000000000000000600052602260045260246000fd5b7f4e487b7100000000000000000000000000000000000000000000000000000000600052604160045260246000fd5b6000601f19601f8301169050919050565b60008160601b9050919050565b620015298162001313565b81146200153557600080fd5b50565b620015438162001347565b81146200154f57600080fd5b50565b612ae580620015626000396000f3fe608060405234801561001057600080fd5b50600436106100f55760003560e01c8063862642f511610097578063b61d27f611610066578063b61d27f6146102fa578063c9100bcb1461032a578063d202158d1461035f578063df9319be1461038f576100f5565b8063862642f51461024c5780639010f7261461027c578063a74c2bb6146102ac578063b1a34e0d146102ca576100f5565b8063262b54f5116100d3578063262b54f51461018c5780634eee424a146101bc5780635d2cfd61146101ec578063747442d31461021c576100f5565b8063032c1a8a146100fa57806312aaac701461012a5780631d3812401461015c575b600080fd5b610114600480360381019061010f9190611b64565b6103bf565b60405161012191906123c5565b60405180910390f35b610144600480360381019061013f9190611b64565b6103df565b6040516101539392919061250a565b60405180910390f35b61017660048036038101906101719190611bc9565b610436565b6040516101839190612269565b60405180910390f35b6101a660048036038101906101a19190611ce6565b6105fa565b6040516101b39190612247565b60405180910390f35b6101d660048036038101906101d19190611b64565b610665565b6040516101e39190612269565b60405180910390f35b61020660048036038101906102019190611c18565b610888565b604051610213919061229f565b60405180910390f35b61023660048036038101906102319190611d0f565b6109f5565b6040516102439190612269565b60405180910390f35b61026660048036038101906102619190611b64565b610d7e565b6040516102739190612269565b60405180910390f35b61029660048036038101906102919190611ce6565b610e80565b6040516102a39190612247565b60405180910390f35b6102b4610eeb565b6040516102c1919061222c565b60405180910390f35b6102e460048036038101906102df9190611d4b565b610f15565b6040516102f19190612284565b60405180910390f35b610314600480360381019061030f9190611afd565b6111fb565b60405161032191906123c5565b60405180910390f35b610344600480360381019061033f9190611b64565b6113fe565b60405161035696959493929190612494565b60405180910390f35b61037960048036038101906103749190611b8d565b611668565b6040516103869190612269565b60405180910390f35b6103a960048036038101906103a49190611c7f565b6116bd565b6040516103b691906122e3565b60405180910390f35b600060016000838152602001908152602001600020600001549050919050565b60008060006001600085815260200190815260200160002060000154600160008681526020019081526020016000206001015460016000878152602001908152602001600020600201549250925092509193909250565b60008360016000868152602001908152602001600020600201541415610491576040517f08c379a000000000000000000000000000000000000000000000000000000000815260040161048890612325565b60405180910390fd5b3073ffffffffffffffffffffffffffffffffffffffff163373ffffffffffffffffffffffffffffffffffffffff1614610535576104f5336040516020016104d891906121ce565b604051602081830303815290604052805190602001206001611668565b610534576040517f08c379a000000000000000000000000000000000000000000000000000000000815260040161052b90612385565b60405180910390fd5b5b836001600086815260200190815260200160002060020181905550826001600086815260200190815260200160002060000181905550816001600086815260200190815260200160002060010181905550600260008481526020019081526020016000208490806001815401808255809150506001900390600052602060002001600090919091909150558183857f480000bb1edad8ca1470381cc334b1917fbd51c6531f3a623ea8e0ec7e38a6e960405160405180910390a4600190509392505050565b60606005600083815260200190815260200160002080548060200260200160405190810160405280929190818152602001828054801561065957602002820191906000526020600020905b815481526020019060010190808311610645575b50505050509050919050565b60003073ffffffffffffffffffffffffffffffffffffffff163373ffffffffffffffffffffffffffffffffffffffff161461070b576106cb336040516020016106ae91906121ce565b604051602081830303815290604052805190602001206001611668565b61070a576040517f08c379a000000000000000000000000000000000000000000000000000000000815260040161070190612385565b60405180910390fd5b5b6004600083815260200190815260200160002060020160009054906101000a900473ffffffffffffffffffffffffffffffffffffffff1673ffffffffffffffffffffffffffffffffffffffff166004600084815260200190815260200160002060000154837f3cf57863a89432c61c4a27073c6ee39e8a764bff5a05aebfbcdcdc80b2e6130a60046000878152602001908152602001600020600101546004600088815260200190815260200160002060030160046000898152602001908152602001600020600401600460008a81526020019081526020016000206005016040516107fa949392919061243a565b60405180910390a46004600083815260200190815260200160002060008082016000905560018201600090556002820160006101000a81549073ffffffffffffffffffffffffffffffffffffffff021916905560038201600061085d9190611830565b60048201600061086d9190611830565b60058201600061087d9190611870565b505060019050919050565b606060008267ffffffffffffffff8111156108cc577f4e487b7100000000000000000000000000000000000000000000000000000000600052604160045260246000fd5b6040519080825280601f01601f1916602001820160405280156108fe5781602001600182028036833780820191505090505b5090506000808590505b8486610914919061266e565b8110156109e857868181518110610954577f4e487b7100000000000000000000000000000000000000000000000000000000600052603260045260246000fd5b602001015160f81c60f81b838381518110610998577f4e487b7100000000000000000000000000000000000000000000000000000000600052603260045260246000fd5b60200101907effffffffffffffffffffffffffffffffffffffffffffffffffffffffffffff1916908160001a90535081806109d2906127ef565b92505080806109e0906127ef565b915050610908565b5081925050509392505050565b6000610a2833604051602001610a0b91906121ce565b604051602081830303815290604052805190602001206002611668565b610a67576040517f08c379a0000000000000000000000000000000000000000000000000000000008152600401610a5e90612305565b60405180910390fd5b827fb3932da477fe5d6c8ff2eafef050c0f3a1af18fc07121001482600f36f3715d883604051610a979190612269565b60405180910390a26060600115158315151415610d435760016003600086815260200190815260200160002060030160006101000a81548160ff0219169083151502179055506003600085815260200190815260200160002060000160009054906101000a900473ffffffffffffffffffffffffffffffffffffffff1673ffffffffffffffffffffffffffffffffffffffff1660036000868152602001908152602001600020600201604051610b4d9190612215565b6000604051808303816000865af19150503d8060008114610b8a576040519150601f19603f3d011682016040523d82523d6000602084013e610b8f565b606091505b5080925081935050508115610c885760016003600086815260200190815260200160002060030160016101000a81548160ff02191690831515021790555060036000858152602001908152602001600020600101546003600086815260200190815260200160002060000160009054906101000a900473ffffffffffffffffffffffffffffffffffffffff1673ffffffffffffffffffffffffffffffffffffffff16857f1f920dbda597d7bf95035464170fa58d0a4b57f13a1c315ace6793b9f63688b860036000898152602001908152602001600020600201604051610c7691906122c1565b60405180910390a46001915050610d78565b60036000858152602001908152602001600020600101546003600086815260200190815260200160002060000160009054906101000a900473ffffffffffffffffffffffffffffffffffffffff1673ffffffffffffffffffffffffffffffffffffffff16857fe10c49d9f7c71da23262367013434763cfdb2332267641728d25cd712c5c6a6860036000898152602001908152602001600020600201604051610d3191906122c1565b60405180910390a46000915050610d78565b60006003600086815260200190815260200160002060030160006101000a81548160ff02191690831515021790555060019150505b92915050565b600081600160008481526020019081526020016000206002015414610dd8576040517f08c379a0000000000000000000000000000000000000000000000000000000008152600401610dcf906123a5565b60405180910390fd5b6001600083815260200190815260200160002060010154600160008481526020019081526020016000206000015460016000858152602001908152602001600020600201547f585a4aef50f8267a92b32412b331b20f7f8b96f2245b253b9cc50dcc621d339760405160405180910390a46001600083815260200190815260200160002060008082016000905560018201600090556002820160009055505060019050919050565b606060026000838152602001908152602001600020805480602002602001604051908101604052809291908181526020018280548015610edf57602002820191906000526020600020905b815481526020019060010190808311610ecb575b50505050509050919050565b6000600660009054906101000a900473ffffffffffffffffffffffffffffffffffffffff16905090565b6000808588604051602001610f2b9291906121e9565b6040516020818303038152906040528051906020012090503073ffffffffffffffffffffffffffffffffffffffff163373ffffffffffffffffffffffffffffffffffffffff1614610fe757610fa733604051602001610f8a91906121ce565b604051602081830303815290604052805190602001206003611668565b610fe6576040517f08c379a0000000000000000000000000000000000000000000000000000000008152600401610fdd90612345565b60405180910390fd5b5b8573ffffffffffffffffffffffffffffffffffffffff166004600083815260200190815260200160002060020160009054906101000a900473ffffffffffffffffffffffffffffffffffffffff1673ffffffffffffffffffffffffffffffffffffffff161461108b57600560008981526020019081526020016000208190806001815401808255809150506001900390600052602060002001600090919091909150555b876004600083815260200190815260200160002060000181905550866004600083815260200190815260200160002060010181905550856004600083815260200190815260200160002060020160006101000a81548173ffffffffffffffffffffffffffffffffffffffff021916908373ffffffffffffffffffffffffffffffffffffffff160217905550846004600083815260200190815260200160002060030190805190602001906111409291906118b0565b508360046000838152602001908152602001600020600401908051906020019061116b9291906118b0565b5082600460008381526020019081526020016000206005019080519060200190611196929190611936565b508573ffffffffffffffffffffffffffffffffffffffff1688827f46149b18aa084502c3f12bc75e19eda8bda8d102b82cce8474677a6d0d5f43c58a8989896040516111e594939291906123e0565b60405180910390a4809150509695505050505050565b6000600360008054815260200190815260200160002060030160019054906101000a900460ff1615611262576040517f08c379a000000000000000000000000000000000000000000000000000000000815260040161125990612365565b60405180910390fd5b83600360008054815260200190815260200160002060000160006101000a81548173ffffffffffffffffffffffffffffffffffffffff021916908373ffffffffffffffffffffffffffffffffffffffff1602179055508260036000805481526020019081526020016000206001018190555081600360008054815260200190815260200160002060020190805190602001906112ff9291906118b0565b50828473ffffffffffffffffffffffffffffffffffffffff166000547f8afcfabcb00e47a53a8fc3e9f23ff47ee1926194bb1350dd007c50b412a6cee88560405161134a919061229f565b60405180910390a46113833360405160200161136691906121ce565b604051602081830303815290604052805190602001206001611668565b806113bb57506113ba3360405160200161139d91906121ce565b604051602081830303815290604052805190602001206002611668565b5b156113cf576113cd60005460016109f5565b505b6000808154809291906113e1906127ef565b919050555060016000546113f591906126c4565b90509392505050565b6000806000606080606060046000888152602001908152602001600020600001546004600089815260200190815260200160002060010154600460008a815260200190815260200160002060020160009054906101000a900473ffffffffffffffffffffffffffffffffffffffff16600460008b8152602001908152602001600020600301600460008c8152602001908152602001600020600401600460008d81526020019081526020016000206005018280546114bb9061278c565b80601f01602080910402602001604051908101604052809291908181526020018280546114e79061278c565b80156115345780601f1061150957610100808354040283529160200191611534565b820191906000526020600020905b81548152906001019060200180831161151757829003601f168201915b505050505092508180546115479061278c565b80601f01602080910402602001604051908101604052809291908181526020018280546115739061278c565b80156115c05780601f10611595576101008083540402835291602001916115c0565b820191906000526020600020905b8154815290600101906020018083116115a357829003601f168201915b505050505091508080546115d39061278c565b80601f01602080910402602001604051908101604052809291908181526020018280546115ff9061278c565b801561164c5780601f106116215761010080835404028352916020019161164c565b820191906000526020600020905b81548152906001019060200180831161162f57829003601f168201915b5050505050905095509550955095509550955091939550919395565b6000806000801b600160008681526020019081526020016000206002015414156116965760009150506116b7565b82600160008681526020019081526020016000206000015411159050809150505b92915050565b6060600084905060008367ffffffffffffffff811115611706577f4e487b7100000000000000000000000000000000000000000000000000000000600052604160045260246000fd5b6040519080825280601f01601f1916602001820160405280156117385781602001600182028036833780820191505090505b5090506000808690505b858761174e919061266e565b8110156118225783818151811061178e577f4e487b7100000000000000000000000000000000000000000000000000000000600052603260045260246000fd5b602001015160f81c60f81b8383815181106117d2577f4e487b7100000000000000000000000000000000000000000000000000000000600052603260045260246000fd5b60200101907effffffffffffffffffffffffffffffffffffffffffffffffffffffffffffff1916908160001a905350818061180c906127ef565b925050808061181a906127ef565b915050611742565b508193505050509392505050565b50805461183c9061278c565b6000825580601f1061184e575061186d565b601f01602090049060005260206000209081019061186c91906119bc565b5b50565b50805461187c9061278c565b6000825580601f1061188e57506118ad565b601f0160209004906000526020600020908101906118ac91906119bc565b5b50565b8280546118bc9061278c565b90600052602060002090601f0160209004810192826118de5760008555611925565b82601f106118f757805160ff1916838001178555611925565b82800160010185558215611925579182015b82811115611924578251825591602001919060010190611909565b5b50905061193291906119bc565b5090565b8280546119429061278c565b90600052602060002090601f01602090048101928261196457600085556119ab565b82601f1061197d57805160ff19168380011785556119ab565b828001600101855582156119ab579182015b828111156119aa57825182559160200191906001019061198f565b5b5090506119b891906119bc565b5090565b5b808211156119d55760008160009055506001016119bd565b5090565b60006119ec6119e784612566565b612541565b905082815260208101848484011115611a0457600080fd5b611a0f84828561274a565b509392505050565b6000611a2a611a2584612597565b612541565b905082815260208101848484011115611a4257600080fd5b611a4d84828561274a565b509392505050565b600081359050611a6481612a53565b92915050565b600081359050611a7981612a6a565b92915050565b600081359050611a8e81612a81565b92915050565b600082601f830112611aa557600080fd5b8135611ab58482602086016119d9565b91505092915050565b600082601f830112611acf57600080fd5b8135611adf848260208601611a17565b91505092915050565b600081359050611af781612a98565b92915050565b600080600060608486031215611b1257600080fd5b6000611b2086828701611a55565b9350506020611b3186828701611ae8565b925050604084013567ffffffffffffffff811115611b4e57600080fd5b611b5a86828701611a94565b9150509250925092565b600060208284031215611b7657600080fd5b6000611b8484828501611a7f565b91505092915050565b60008060408385031215611ba057600080fd5b6000611bae85828601611a7f565b9250506020611bbf85828601611ae8565b9150509250929050565b600080600060608486031215611bde57600080fd5b6000611bec86828701611a7f565b9350506020611bfd86828701611ae8565b9250506040611c0e86828701611ae8565b9150509250925092565b600080600060608486031215611c2d57600080fd5b600084013567ffffffffffffffff811115611c4757600080fd5b611c5386828701611a94565b9350506020611c6486828701611ae8565b9250506040611c7586828701611ae8565b9150509250925092565b600080600060608486031215611c9457600080fd5b600084013567ffffffffffffffff811115611cae57600080fd5b611cba86828701611abe565b9350506020611ccb86828701611ae8565b9250506040611cdc86828701611ae8565b9150509250925092565b600060208284031215611cf857600080fd5b6000611d0684828501611ae8565b91505092915050565b60008060408385031215611d2257600080fd5b6000611d3085828601611ae8565b9250506020611d4185828601611a6a565b9150509250929050565b60008060008060008060c08789031215611d6457600080fd5b6000611d7289828a01611ae8565b9650506020611d8389828a01611ae8565b9550506040611d9489828a01611a55565b945050606087013567ffffffffffffffff811115611db157600080fd5b611dbd89828a01611a94565b935050608087013567ffffffffffffffff811115611dda57600080fd5b611de689828a01611a94565b92505060a087013567ffffffffffffffff811115611e0357600080fd5b611e0f89828a01611abe565b9150509295509295509295565b6000611e288383611ec7565b60208301905092915050565b611e3d816126f8565b82525050565b611e54611e4f826126f8565b612838565b82525050565b6000611e6582612602565b611e6f8185612630565b9350611e7a836125c8565b8060005b83811015611eab578151611e928882611e1c565b9750611e9d83612623565b925050600181019050611e7e565b5085935050505092915050565b611ec18161270a565b82525050565b611ed081612716565b82525050565b611edf81612716565b82525050565b6000611ef08261260d565b611efa8185612641565b9350611f0a818560208601612759565b611f13816128f3565b840191505092915050565b60008154611f2b8161278c565b611f358186612641565b94506001821660008114611f505760018114611f6257611f95565b60ff1983168652602086019350611f95565b611f6b856125d8565b60005b83811015611f8d57815481890152600182019150602081019050611f6e565b808801955050505b50505092915050565b60008154611fab8161278c565b611fb58186612652565b94506001821660008114611fd05760018114611fe157612014565b60ff19831686528186019350612014565b611fea856125d8565b60005b8381101561200c57815481890152600182019150602081019050611fed565b838801955050505b50505092915050565b600061202882612618565b612032818561265d565b9350612042818560208601612759565b61204b816128f3565b840191505092915050565b600081546120638161278c565b61206d818661265d565b94506001821660008114612088576001811461209a576120cd565b60ff19831686526020860193506120cd565b6120a3856125ed565b60005b838110156120c5578154818901526001820191506020810190506120a6565b808801955050505b50505092915050565b60006120e3601f8361265d565b91506120ee82612911565b602082019050919050565b600061210660128361265d565b91506121118261293a565b602082019050919050565b600061212960258361265d565b915061213482612963565b604082019050919050565b600061214c60108361265d565b9150612157826129b2565b602082019050919050565b600061216f60238361265d565b915061217a826129db565b604082019050919050565b6000612192600b8361265d565b915061219d82612a2a565b602082019050919050565b6121b181612740565b82525050565b6121c86121c382612740565b61285c565b82525050565b60006121da8284611e43565b60148201915081905092915050565b60006121f58285611e43565b60148201915061220582846121b7565b6020820191508190509392505050565b60006122218284611f9e565b915081905092915050565b60006020820190506122416000830184611e34565b92915050565b600060208201905081810360008301526122618184611e5a565b905092915050565b600060208201905061227e6000830184611eb8565b92915050565b60006020820190506122996000830184611ed6565b92915050565b600060208201905081810360008301526122b98184611ee5565b905092915050565b600060208201905081810360008301526122db8184611f1e565b905092915050565b600060208201905081810360008301526122fd818461201d565b905092915050565b6000602082019050818103600083015261231e816120d6565b9050919050565b6000602082019050818103600083015261233e816120f9565b9050919050565b6000602082019050818103600083015261235e8161211c565b9050919050565b6000602082019050818103600083015261237e8161213f565b9050919050565b6000602082019050818103600083015261239e81612162565b9050919050565b600060208201905081810360008301526123be81612185565b9050919050565b60006020820190506123da60008301846121a8565b92915050565b60006080820190506123f560008301876121a8565b81810360208301526124078186611ee5565b9050818103604083015261241b8185611ee5565b9050818103606083015261242f818461201d565b905095945050505050565b600060808201905061244f60008301876121a8565b81810360208301526124618186611f1e565b905081810360408301526124758185611f1e565b905081810360608301526124898184612056565b905095945050505050565b600060c0820190506124a960008301896121a8565b6124b660208301886121a8565b6124c36040830187611e34565b81810360608301526124d58186611ee5565b905081810360808301526124e98185611ee5565b905081810360a08301526124fd818461201d565b9050979650505050505050565b600060608201905061251f60008301866121a8565b61252c60208301856121a8565b6125396040830184611ed6565b949350505050565b600061254b61255c565b905061255782826127be565b919050565b6000604051905090565b600067ffffffffffffffff821115612581576125806128c4565b5b61258a826128f3565b9050602081019050919050565b600067ffffffffffffffff8211156125b2576125b16128c4565b5b6125bb826128f3565b9050602081019050919050565b6000819050602082019050919050565b60008190508160005260206000209050919050565b60008190508160005260206000209050919050565b600081519050919050565b600081519050919050565b600081519050919050565b6000602082019050919050565b600082825260208201905092915050565b600082825260208201905092915050565b600081905092915050565b600082825260208201905092915050565b600061267982612740565b915061268483612740565b9250827fffffffffffffffffffffffffffffffffffffffffffffffffffffffffffffffff038211156126b9576126b8612866565b5b828201905092915050565b60006126cf82612740565b91506126da83612740565b9250828210156126ed576126ec612866565b5b828203905092915050565b600061270382612720565b9050919050565b60008115159050919050565b6000819050919050565b600073ffffffffffffffffffffffffffffffffffffffff82169050919050565b6000819050919050565b82818337600083830152505050565b60005b8381101561277757808201518184015260208101905061275c565b83811115612786576000848401525b50505050565b600060028204905060018216806127a457607f821691505b602082108114156127b8576127b7612895565b5b50919050565b6127c7826128f3565b810181811067ffffffffffffffff821117156127e6576127e56128c4565b5b80604052505050565b60006127fa82612740565b91507fffffffffffffffffffffffffffffffffffffffffffffffffffffffffffffffff82141561282d5761282c612866565b5b600182019050919050565b60006128438261284a565b9050919050565b600061285582612904565b9050919050565b6000819050919050565b7f4e487b7100000000000000000000000000000000000000000000000000000000600052601160045260246000fd5b7f4e487b7100000000000000000000000000000000000000000000000000000000600052602260045260246000fd5b7f4e487b7100000000000000000000000000000000000000000000000000000000600052604160045260246000fd5b6000601f19601f8301169050919050565b60008160601b9050919050565b7f53656e64657220646f6573206e6f74206861766520616374696f6e206b657900600082015250565b7f4b657920616c7265616479206578697374730000000000000000000000000000600082015250565b7f53656e64657220646f6573206e6f74206861766520636c61696d207369676e6560008201527f72206b6579000000000000000000000000000000000000000000000000000000602082015250565b7f416c726561647920657865637574656400000000000000000000000000000000600082015250565b7f53656e64657220646f6573206e6f742068617665206d616e6167656d656e742060008201527f6b65790000000000000000000000000000000000000000000000000000000000602082015250565b7f4e6f2073756368206b6579000000000000000000000000000000000000000000600082015250565b612a5c816126f8565b8114612a6757600080fd5b50565b612a738161270a565b8114612a7e57600080fd5b50565b612a8a81612716565b8114612a9557600080fd5b50565b612aa181612740565b8114612aac57600080fd5b5056fea2646970667358221220293a55776512916ae583d511c92e9249a3c318587d8fefc9dd2aabf0320e067a64736f6c63430008010033",
  "immutableReferences": {},
  "source": "// SPDX-License-Identifier: GPL-3.0\r\npragma solidity >=0.7.0 <0.9.0;\r\n\r\nimport './xClaimHolder.sol';\r\n\r\n// **Warning!** This file is a protoype version of our work around ERC 725.\r\n// This file is now out of date and **should not be used**.\r\n// Our current identity contracts are here:\r\n// https://github.com/OriginProtocol/origin/tree/master/origin-contracts/contracts/identity\r\n\r\n/**\r\n * NOTE: This contract exists as a convenience for deploying an identity with\r\n * some 'pre-signed' claims. If you don't care about that, just use ClaimHolder\r\n * instead.\r\n */\r\n\r\ncontract xIdentity is xClaimHolder {\r\n\r\n    constructor (uint256[]memory _claimType, uint256[]memory _scheme, address[]memory _issuer, bytes memory _signature, bytes memory _data, string memory _uri, uint256[] memory _sigSizes, uint256[] memory dataSizes,uint256[] memory uriSizes){\r\n        bytes32 claimId;\r\n        uint offset = 0;\r\n        uint uoffset = 0;\r\n        uint doffset = 0;\r\n\r\n        for (uint i = 0; i < _claimType.length; i++) {\r\n\r\n            claimId = keccak256(abi.encodePacked(_issuer[i], _claimType[i]));\r\n\r\n            claims[claimId] = Claim(\r\n                _claimType[i],\r\n                _scheme[i],\r\n                _issuer[i],\r\n                getBytes(_signature, offset, _sigSizes[i]),\r\n                getBytes(_data, doffset, dataSizes[i]),\r\n                getString(_uri, uoffset, uriSizes[i])\r\n            );\r\n\r\n            offset += _sigSizes[i];\r\n            uoffset += uriSizes[i];\r\n            doffset += dataSizes[i];\r\n\r\n            emit ClaimAdded(\r\n                claimId,\r\n                claims[claimId].claimType,\r\n                claims[claimId].scheme,\r\n                claims[claimId].issuer,\r\n                claims[claimId].signature,\r\n                claims[claimId].data,\r\n                claims[claimId].uri\r\n            );\r\n        }\r\n    }\r\n\r\n    function getBytes(bytes memory _str, uint256 _offset, uint256 _length) public returns (bytes memory) {\r\n        bytes memory sig = new bytes(_length);\r\n        uint256 j = 0;\r\n        for (uint256 k = _offset; k< _offset + _length; k++) {\r\n          sig[j] = _str[k];\r\n          j++;\r\n        }\r\n        return sig;\r\n    }\r\n\r\n    function getString(string memory _str, uint256 _offset, uint256 _length) public returns (string memory) {\r\n        bytes memory strBytes = bytes(_str);\r\n        bytes memory sig = new bytes(_length);\r\n        uint256 j = 0;\r\n        for (uint256 k = _offset; k< _offset + _length; k++) {\r\n          sig[j] = strBytes[k];\r\n          j++;\r\n        }\r\n        return string(sig);\r\n    }\r\n}",
  "sourcePath": "D:/XAMPP/htdocs/issuerMod/contracts/xIdentity.sol",
  "compiler": {
    "name": "solc",
    "version": "0.8.1+commit.df193b15.Emscripten.clang"
  },
  "schemaVersion": "3.3.4",
  "updatedAt": "2021-12-05T15:55:57.088Z",
  "devdoc": {
    "kind": "dev",
    "methods": {},
    "version": 1
  },
  "userdoc": {
    "kind": "user",
    "methods": {},
    "notice": "NOTE: This contract exists as a convenience for deploying an identity with some 'pre-signed' claims. If you don't care about that, just use ClaimHolder instead.",
    "version": 1
  }
}